:020000041000EA
:1000000000B5324B212058609868022188439860DF
:10001000D860186158612E4B002199600221596106
:100020000121F02299502B49196001219960352056
:1000300000F044F80222904214D00621196600F024
:1000400034F8196E01211966002018661A6600F04E
:100050002CF8196E196E196E052000F02FF8012189
:100060000842F9D1002199601B49196000215960AB
:100070001A491B48016001219960EB211966A021F2
:10008000196600F012F800219960164914480160C1
:100090000121996001BC002800D000471248134993
:1000A000086003C880F30888084703B5996A0420EC
:1000B0000142FBD001200142F8D103BD02B5186610
:1000C0001866FFF7F2FF186E186E02BD00000240BE
:1000D000000000180000070000035F00212200005C
:1000E000F4000018222000A00001001008ED00E03C
:1000F00000000000000000000000000074B24E7A12
:1001000000200420F7010010C3010010C5010010F9
:10011000C1010010C1010010C1010010C101001097
:10012000C1010010C1010010C1010010DD8E0110DD
:10013000C1010010C1010010398F0110B98F0110E9
:10014000CD010010CD010010CD010010CD01001037
:10015000CD010010CD010010CD010010CD01001027
:10016000CD010010CD010010CD010010CD01001017
:10017000CD010010CD010010CD010010CD01001007
:10018000CD010010CD010010CD010010CD010010F7
:10019000CD010010CD010010CD010010CD010010E7
:1001A000CD010010CD010010CD010010CD010010D7
:1001B000CD010010CD010010CD010010CD010010C7
:1001C00000BE00BE00BE00BE00BE00BEEFF3058054
:1001D000103800BEF2EB8871103B0510383B05105B
:1001E0003802001090A31AE71E481F49086006C88D
:1001F00081F3088810471D480068002801D019487D
:10020000F3E70DA40ECC002902D000F012F8F9E7B4
:100210001749184A002000E001C19142FCD116495B
:100220008847164988471649884700BEFDE701C937
:1002300001C29A42FBD37047383B0510E000002012
:10024000600B0020B84505100000042000000420C9
:10025000B845051000100420001004200000000024
:10026000704700000000000008ED00E0000000D032
:10027000600B0020FC0B0120A145001015080010A8
:1002800099450010F8B5C04606480749091A8B1071
:10029000C90FC91810B5491003D0044B002B00D06A
:1002A000984710BD600B0020600B0020000000008C
:1002B000054B10B5002B03D00449054800E000BFF2
:1002C000FFF7E2FF10BDC0460000000058FA002012
:1002D0009C9C011010B5024804F074FB10BDC04690
:1002E000A09C011010B5024804F06CFB10BDC04684
:1002F000C09C01100B0010B511001A00014804F059
:1003000061FB10BDE09C011010B5002900D110BDAB
:10031000014804F057FBFAE7F49C0110FA2310B5EA
:100320000E4C9B012068984211DA042280210C4B6C
:1003300049001A600B4A13680B42FCD05368421CF8
:1003400022609BB2084A1B091354012010BD074BC1
:100350000021186816F0CAFB0020F7E7C80B01203F
:1003600000E0044000C0044048120020D00B0120EF
:1003700030B51B4B85B01B78DDB2002B01D005B02A
:1003800030BD184C03A920000FF0ACF9002819D09B
:10039000154C164BA5606360E560258214F0BEF92C
:1003A0002068002813D0124A124B0192043A00929E
:1003B00003A9114A15F0DAFC14F0BAF90F4804F059
:1003C0007DFADCE721000E4804F0FCFAD7E715F0CF
:1003D000C5FC20600028E6D10A4800F029FBC04691
:1003E000F20B0120109D0110640B01203C9D0110B7
:1003F000680B0120510700105B070000609D011091
:100400001C9D0110489D0110F0B5CE46474680B5B1
:1004100087B00FF061FC002800D09FE00FF0FCFBDC
:10042000504D514C514E06E0300004F047FAFA208E
:10043000800001F0BFFA290020004D4B4D4A0FF01B
:10044000F9FB0028F0D14C480FF024FA4B4B010087
:10045000180004F0B7FAFFF78BFF01F095FC20239A
:10046000474DEB5C002B45D1464B474E9846474BDA
:10047000474F994606E00A2001F09CFA2023EB5CE6
:10048000002B37D114F04AF90BF0E8F914F050F9C9
:100490000A21306816F0AEFC04000128EBD13B784D
:1004A000002BE8D041236A4641464846938204F037
:1004B00089FA0121374804F085FA14F02FF9364BF8
:1004C0002868029300230094019341460395013369
:1004D00005AA15F0C3F8040014F02AF9002C38D14D
:1004E0002E4804F0EBF90A2001F064FA2023EB5CBB
:1004F000002BC7D000262A4804F0E0F914F00EF9CA
:10050000284C28682300012227490196009515F000
:100510005BFA28682300012224490196009515F012
:1005200053FA23000122286821490196009515F00D
:100530004BFA14F0FDF81F491F4804F043FA2868ED
:1005400016F04CF80FF002FC07B0C0BCB946B0463C
:10055000F0BD2100194804F035FA8CE7184800F086
:1005600067FAC046A49D0110B09D0110909D011036
:100570001027000004004000085B0020C89D011007
:10058000640B0120E09D0110CC0B0120EC9D0110BB
:10059000F20B0120109E011009030010309E011083
:1005A000809E0110E5020010A89E0110B09E01106F
:1005B000B89E0110C09E0110D09E0110589E0110DF
:1005C0007C9D0110F0B5DE4657464E464546E0B5E7
:1005D0001F21C5B01B2000F057F9002200211B206D
:1005E00000F06CF900211B2000F0EEF904F0ECFAA9
:1005F0004B4B1A6880235B015340E022D201134029
:10060000484A1360484B0693484B0793484B99461A
:10061000484B0893484B0993484B9846484B9B4698
:10062000484B059304239A46069804F047F943463D
:100630000A935B46444F0B9312AB98461E0000236F
:1006400080259B46364C6D0053463B6023682B4209
:10065000FCD0636864201B041B0C08C600219B446B
:1006600001F032F944ABB342EED13221584601F0E9
:10067000E3FE0022414608C91B1ADC171B19634020
:10068000D21844AB8B42F6D1304B9A42D4DD0A9B50
:10069000079898460B9B00259B4604F00FF94B46A4
:1006A0001D6000F0ABFF0CAB0293089B7D22009312
:1006B0000195002301F082FA00282DD04346012144
:1006C0001868494216F096FB012821D05B46FA24AF
:1006D0001E78A4015D789F1C5C4438780321401982
:1006E000801901F0A9FE7B78C6B218183E70401937
:1006F000032101F0A1FEC5B27D700237BC42ECD1EE
:10070000059B002200211868002315F0DDFF8BE710
:100710000CA801F0E5FAD9E7099804F0CFF8CDE785
:1007200000C0044000D00440E49E0110049F01106A
:10073000C80B01201D030010149F0110D00B0120D5
:1007400048120020CC0B012000E0044009D7000033
:1007500070B51100224882B0140004F033F9214B27
:10076000002C32D1012620481E7004F0A7F813F0A7
:10077000D5FF1E4C1E4D20682B0001221D490196FD
:10078000009415F021F920682B0001221A490196E6
:10079000009415F019F92B000122184920680196E0
:1007A000009415F011F913F0C3FF1549154804F032
:1007B00009F913F0B3FF23000021134A206815F054
:1007C000C1FA13F0B5FF02B070BD00220F481A70D5
:1007D00004F074F80E4801F0EDF8FFF7C9FDF2E7F8
:1007E0002C9F0110F20B0120409F0110640B01208F
:1007F000D5020010A89E0110B09E0110B89E0110F5
:10080000709F0110D09E0110F50200107C9F011016
:100810008813000030B583B004F000F8124804F0EB
:100820004DF803220021012015F01CFF0F4B03227D
:1008300018600021012015F015FF002501240C4B44
:100840000C4918600C4A00230C480195009416F0DE
:10085000F3FF00230A49084A0A480195009416F05C
:10086000EBFF17F0D5FAFEE79C9F0110D00B01209B
:10087000CC0B0120A09F0110FF0F0000C505001048
:10088000AC9F011009040010094A83009A1810B5A2
:1008900014684022544080322240064CC000A446D6
:1008A00063441A60044B9C466044416010BDC046DE
:1008B00004C0014004D0014000400140074B8000CB
:1008C000C3181B68C90092000A435A400C23134006
:1008D000034A9446604403607047C04604C0014028
:1008E00004D001408000002905D0064B9C4602231D
:1008F000604403607047044B9C46022360440360DD
:10090000F8E7C04604E0014004F00140D0231B0694
:100910001B6830B50500584243412F205B4283439A
:100920000E48EC08844607202840800081402000C3
:100930000B4D3C3063448000A40041511B19002A38
:1009400005D08022920194466344196030BDC022D4
:100950009201944663441960F8E7C0463041014073
:1009600000400140D023F0B5C6461B0698461B68E0
:100970000C4F9B001600FA5804000D0000B5104201
:1009800009D1290014430D203200FC5000F070F909
:1009900080BCB846F0BD01F06BFC43461B689B0071
:1009A000FA58EEE73C0A012010B504000D2000F0D3
:1009B00059FAD0231B061B6802499B005A58A243D0
:1009C0005A5010BD3C0A01208000002905D0064B7A
:1009D0009C464023604403607047044B9C46402380
:1009E00060440360F8E7C04604E0014004F00140C1
:1009F0000123D0228340120693629361094A830047
:100A00009A1811684022514080320A400649C000BD
:100A10008C4663441A60054B9C4605236044436042
:100A20007047C04604C0014004D00140004001406E
:100A30000FB400B5084883B003F040FF049B002BBF
:100A400007D005A91800019103F072FD034803F0D7
:100A500035FF012003F084FDB89F011098BA011002
:100A6000EFF3108072B6034A1368002BFCD0BFF37B
:100A70005F8F70472C0100D0BFF35F8F0022024BC5
:100A80001A6080F3108870472C0100D070B5EFF326
:100A9000108C72B60D4D2B68002BFCD0BFF35F8F0E
:100AA0000724CB08C618C05C01230C40A3401C00DF
:100AB0000440034207D118433070BFF35F8F2C60AE
:100AC0008CF3108870BD1000FFF7B2FF2C0100D02E
:100AD000F8B54746CE46884680B5EFF3108C72B61F
:100AE0001C4D2C68002CFCD0BFF35F8F9A4222D89B
:100AF00007210126894602E00132934218D34D4670
:100B000037001540AF40D4080119045D2742F3D1E6
:100B100010003C430C70BFF35F8F00220D4B1A6036
:100B20008CF3108800280EDBC0BCB946B046F8BD77
:100B300001204042EFE7BFF35F8F00232B608CF36F
:100B40001088012040424346002BEDD00898FFF763
:100B50006FFFC0462C0100D030B5EFF3108C72B699
:100B60000A4C2368002BFCD0BFF35F8F07230122C0
:100B70000B409A40CD08435D93434355BFF35F8FCD
:100B8000002323608CF3108830BDC0462C0100D0B8
:100B9000044A1078431CDBB2172B00D910231370C2
:100BA0007047C046F00400200021044B044ABFF304
:100BB0005F8F02C39342FAD17047C046000100D054
:100BC000800100D0054B064A1360064A136053604B
:100BD0009360D3601361536193617047808080801C
:100BE00000E400E004E400E01F2318401E3B8340C3
:100BF000002905D0C021044A4900535013607047B2
:100C0000802201498B50FAE700E100E00123834094
:100C1000014A13607047C04600E200E070B50D0065
:100C2000EFF3108672B60F4A1368002BFCD0BFF3A7
:100C30005F8F0D4B10309B6884001B590B4A934209
:100C400003D09D4201D001F013FB074B9B681D515F
:100C5000BFF35F8FBFF35F8F0022024B1A6086F3F2
:100C6000108870BD240100D000ED00E0CD0100101F
:100C7000F0B557464E46DE464546E0B585B006001F
:100C800000911700EFF3108B72B66A4A1368002BBD
:100C9000FCD0BFF35F8F0025674B5D579A46002D50
:100CA00000DAA9E06B00654C01935B199B00984644
:100CB000A146C1444B4652469B7910361370604B97
:100CC000B6009B6899590B1B2F2B33D95D4B99426A
:100CD00000D0ACE0019B42469C465B4B6544AD00B6
:100CE00063535A4B0232A218043B9B1A1B05584A05
:100CF0005B0D651913436B80564B0121AB80FF23BD
:100D0000AB71009BEF71AB604B460B4319004C4B32
:100D10009B689951BFF35F8FBFF35F8F0022454BF4
:100D20001A608BF3108805B0F0BCBB46B246A946EA
:100D3000A046F0BD01200A008243D3798C46BB4215
:100D400031D84546130044491B1B5B415943090DEB
:100D50003D4B63533D4B02356519043B5B1B1B0543
:100D60003B4D5B0D2B43AA464D466B800425AC469C
:100D70005546E044131F44441B1B1B055B0D1D43DC
:100D80004B46997100999D8099604946DF71334BBC
:100D900001431360BBE75800C01880002018C179D8
:100DA000B9422FD902000623D356002BF3DA02935F
:100DB0002B4B61460393131D9A4604235B429C46CA
:100DC000E14450464B461B1A1B055B0D9C46204BCD
:100DD000957198466346404603439380019B5A1998
:100DE0009200039BA418A380029B1C4AA371009B42
:100DF0002260E771A3608AE701F03AFA00255346C2
:100E00005D574FE7908802934005131D9A460315DE
:100E100061469C464046D444634604302018181A64
:100E2000E0230005400D1B0218430390C5E701F0C5
:100E30001FFA4FE7240100D0F10B0120F404002039
:100E400000ED00E0CD01001000A1FFFF240500200F
:100E500000E0FFFF01BDFFFFAAAA00000148804794
:100E600001BD0000F0B5DE4657464E464546E0B5AA
:100E70000C0083B0EFF3108872B6634A1368002B3E
:100E8000FCD0BFF35F8F614B61499A680300103358
:100E90009F00D55901938D4243D0A54254D05D4E59
:100EA000AA1B2F2A3DD85C4B9B461B689946012301
:100EB0001A009C4682404B4613401F2299466346C7
:100EC000024093409A4680225B4650469850BFF3BA
:100ED0005F8FEFF305839B46002B37D0019B5B456B
:100EE00001D001F0C5F901232A009A439068844299
:100EF00008D176E04B005B189B00F3189868844299
:100F000036D01A00062151560029F3DA844254D013
:100F10004B46002B27D0C02251463F4B52009950E0
:100F200019603A4B9B68DD51BFF35F8FBFF35F8F52
:100F30000022354B1A6088F3108803B0F0BCBB4622
:100F4000B246A946A046F0BD0D00EAE72A00634676
:100F50009A4390688442D5D1062010561300002889
:100F60000ADA0D0031E0802351462B4AD150D8E7F0
:100F700006201856002821DB420011188900741839
:100F80008B46A1689960E179D97106216156997102
:100F9000002924DBA488F11A640524155C4409198E
:100FA00009051E4C490D2143998013181C4A9B00CA
:100FB0001178F31899711070AAE7130059460029A7
:100FC00014D1FF3191711749918015490A789A71AE
:100FD000154A9B1B5B415A43120D0A7098E7114951
:100FE000E2E70620105613000028C5DA0F4A104920
:100FF000D21A083A5002400D014399800D49520817
:101000000A43DA8084E7C046240100D000ED00E006
:10101000CD010010F404002000E100E000E0FFFF3B
:10102000F10B012001BDFFFFAAAA00002E05002040
:1010300000F0FFFF00F8FFFF10B583080400032055
:101040002040FF24054AC0009446844081409B0014
:1010500063441A68A2430A431A6010BD00E400E02A
:1010600070B501240443EFF30581EFF3108C72B6E1
:10107000214A1368002BFCD0BFF35F8F1F4B050084
:101080001F4AED1A6D416A43120D1E4D8900AE686C
:1010900052B27658A6421CD00621595691421CD015
:1010A00012215956914222D01E215956914220D0E8
:1010B0002A2159560324914210D0134B19781A70E3
:1010C0008171BFF35F8F00220B4B1A608CF3108885
:1010D00070BDAB680D4C5C50EFE70024610009194E
:1010E00089005B18FF21997109499980E5E701247E
:1010F000F4E70224F2E7C046240100D0F404002003
:10110000AAAA000000ED00E0F10B0120CD010010C3
:1011100001BDFFFF1F2110B5091A0248FFF71CFD92
:1011200010BDC046FA0B012010B5084B084C82B028
:1011300001000093002205232000FFF7C9FC0028CE
:1011400001DB1F23181A02B010BDC046C89F011052
:10115000FA0B012070B504000E001500FFF718FD12
:101160000100200000F006F8A680E580BFF35F8F45
:1011700070BDC046024B9C466144890001607047C7
:101180004000003470B5114C114DAC420FD2FF2617
:101190002368002B0CD0FFF7FBFC01002000FFF7B9
:1011A000E9FFA680BFF35F8F0834AC42F0D370BD77
:1011B000FFF7EEFC01002000FFF7DCFF2671BFF314
:1011C0005F8F0834AC42E3D3F1E7C046580B0020F0
:1011D000600B002010B50400FFF7DAFC01002000CE
:1011E000FFF7C8FFFF23A380BFF35F8F10BDC0468A
:1011F0000A4B1968EFF3108072B60A68002AFCD017
:10120000BFF35F8F1B68BFF35F8F00221A6080F30C
:10121000108840BF002000217047C046600B0120AD
:10122000F0B5DE4657464E464546E0B587B0EFF38B
:101230000583032201251A40954091008846A9465E
:10124000B34B03925C58B34B1D60B34B04934B46B6
:10125000B24843630823E55E002D37DAA3881BB24A
:10126000002B00DBADE0A379002B00D0EEE00823DB
:10127000E05E002820DB430062691B18DB00D31806
:101280009E68DD68731C00D111E1A448010041444F
:10129000826A0B69B71A9B1A9F4215D30123026A0F
:1012A000039883401A420FD09C4800F065FD8D42A0
:1012B00002DCCCD18642CAD940BF07B0F0BCBB46E5
:1012C000B246A946A046F0BD0E61EDE762696B002B
:1012D00092465B19DB009A4453469E68DF6800F033
:1012E0004BFD8F42BADC00D103E1002F00DAE8E0C9
:1012F0005246534652691B699346049A934200D161
:10130000D9E052460821605E5288000459461043D5
:101310009847009001910099019A0B001000134327
:1013200000D1CEE013000A00B61A9F41002806DB68
:101330007A4800F021FD009E019F36184F41534628
:101340009E60DF6000229A5E002A00DA86E7530082
:1013500099186069C900411802938B68C9689B4657
:10136000B94200DD7AE702D1B34200D976E708231B
:101370009C46A444059565462281A446029B2C0008
:1013800006E053009918C90041188D68C968AB463A
:101390009B18DB00C318B94206DC00D1B3E01C0087
:1013A0000023E25E002AECDA230064469C465346A2
:1013B0001A806346059D1D80A3881BB2002B00DAAE
:1013C00051E72269EFF3108172B61368002BFCD04D
:1013D000BFF35F8F0123A7885B42A3803FB22369DD
:1013E000BFF35F8F00221A6081F31088002F00DAAC
:1013F00039E72300083322009A4666697B00DB192F
:10140000DB00F318996850468C460824115FDD68AC
:10141000002910DB029306E0AB4244D00023E15EDA
:101420002000002906DB4C006418E4003419E3684E
:10143000AB42F1DD029B078000201F5E1980002F68
:10144000DCDA1400A379002B00D110E70023A3718C
:1014500026000823E15E08364B1C00D12CE708006B
:10146000A246656902E03E004B1C1AD04B005B1897
:10147000DB00EF180A008C46E95E7B881BB2002B6C
:10148000F1DA01235B42DC17BB60FC60824205D0CD
:10149000534631801B893B8053461A8160464B1C62
:1014A000E4D15446E5E6A3686345B7D9C2E76B1CAF
:1014B00000D0EAE6F8E65B4658461B6998470028E4
:1014C0001BD153461B8822692381EFF3108372B628
:1014D00011680029FCD0BFF35F8F514662880A80F3
:1014E00022696580BFF35F8F0021116083F310884C
:1014F000B4E6864200D8F8E6B0E65B461A685B6858
:101500000092019307E7B34500D848E74CE7C0468F
:1015100070FA00203C700540211200100040054088
:1015200070B52E4C2569002D04D00A212C48FFF7F8
:1015300021FE70BD2B4E0321300000F013FCE6604D
:10154000FFF726FB284B03229C46D02322701B0664
:101550001B6801216370254B6044A3600F2380004A
:1015600020610220638063694942A18019800231B1
:10157000198647311D83585218315A5275325C39D9
:101580009952183201319952183201319952183258
:1015900001319952083518329D5202311832995250
:1015A00018320131995218320131995218320131F1
:1015B00099521832013199521832013199520C4B1B
:1015C0000C49DC6001303562FFF728FB0121032064
:1015D000FFF70AFB084B1D60A7E7C0463C0500204B
:1015E000600B01200040054040000034FFFF100068
:1015F00070FA002021120010386005400048704742
:101600003C050020F8B51F0008AB1B78040016004D
:10161000002B08D100F0B8FB32003B00121A8B41BE
:10162000002B00DA52E02269EFF3108072B61368E3
:10163000002BFCD0BFF35F8F0223E15E63694A0099
:101640005218D2009B182269002936DB1D8865805C
:10165000BFF35F8F0025156080F31088069A9E60A7
:10166000DF601A61079A5A615A8801325204520C9B
:10167000101C002A1FD082B258800804104326692B
:10168000EFF3108772B63268002AFCD0BFF35F8F89
:10169000A2881A80A1802369BFF35F8F00221A609D
:1016A00087F310880A4923788C4601329A40E36810
:1016B00063441A60F8BD0120DDE7BFF35F8F0023AC
:1016C000136080F3108801204042F3E70020F1E727
:1016D0003C20000070B501000469EFF3108C72B675
:1016E00020680028FCD0BFF35F8F02200D5E4C699C
:1016F00068004019C00024180869002D36DB2688D0
:101700004E80BFF35F8F002606608CF31088E36085
:1017100063880498013320615B0405985B0CA26028
:1017200060611A1C002B1FD093B2280462801843FA
:101730000A69EFF3108C72B61368002BFCD0BFF36C
:101740005F8F8B8823808D800B69BFF35F8F0022B2
:101750001A608CF310880B7801329A40CB680849E4
:101760008C4663441A6070BD0122DDE7BFF35F8FD2
:10177000002303608CF3108801204042F3E7C04649
:101780003C20000010B543890A1493421ADD53002F
:101790009B184269DB00D3180469EFF3108C72B612
:1017A0002268002AFCD0BFF35F8F5A88090494B2E4
:1017B000090C8A4208D00369BFF35F8F00221A60C8
:1017C0008CF31088002010BD8022120214435C802C
:1017D000012302698371BFF35F8F002111608CF3D5
:1017E0001088044902788C469340C2680120624404
:1017F0001360E8E73C200000F0B506000F00062467
:101800006442E517C646A4197D4100B582B08D42F9
:1018100014D811D000F0B8FA22002B00121A8B4114
:10182000002B15DC002B44D03000390000F0EAFA20
:1018300002B080BCB846F0BD8442EBD9002400253C
:1018400000F0A2FA22002B00121A8B41002BE9DDD6
:1018500000F09AFA22002B00121A8B41002B0ADBAF
:1018600000230193144B2200009314482B00FFF730
:1018700031FF0130D8D0A04629000024104A114879
:10188000536A994204D8956A4545CDD29942CBD145
:101890000568EFF3108C72B62B68002BFCD0BFF3F9
:1018A0005F8F0368BFF35F8F1C608CF3108820BFCD
:1018B000E6E7002AB8D0CBE7F11100103C05002084
:1018C00000400540600B0120F0B5C64600B582B06F
:1018D00004000D0000F058FA24184D41002D02DAE2
:1018E00001242F4D644206267642F71736196F41C0
:1018F000AF4214D811D000F047FA32003B00121A60
:101900008B41002B15DC002B46D02000290000F075
:1019100079FA02B080BCB846F0BDA642EBD90026E9
:10192000002700F031FA32003B00121A8B41002BE5
:10193000E9DD00F029FA32003B00121A8B41002B3E
:101940000ADB00230193174B3200009316483B003B
:10195000FFF7C0FE0130D8D000233900B0469C46C6
:10196000124A1348536A994204D8966A4645CCD223
:101970009942CAD10668EFF3108772B63368002B1C
:10198000FCD0BFF35F8F0368BFF35F8F66461E60B6
:1019900087F3108820BFE5E7002AB6D0C9E7C04624
:1019A000FFFFFF7FF11100103C05002000400540C3
:1019B000600B0120F0B5C64600B582B0040000F00F
:1019C000E3F9FA2206000F00200000230021920014
:1019D00001F0D4F88019794104000D1E02DA0124C7
:1019E0002E4D644206267642F71736196F41AF42F4
:1019F00014D811D000F0C8F932003B00121A8B4104
:101A0000002B15DC002B46D02000290000F0FAF94D
:101A100002B080BCB846F0BDA642EBD90026002734
:101A200000F0B2F932003B00121A8B41002BE9DDC5
:101A300000F0AAF932003B00121A8B41002B0ADB9E
:101A400000230193164B3200009316483B00FFF72A
:101A500041FE0130D8D000233900B0469C46124ADE
:101A60001248536A994204D8966A4645CCD29942A4
:101A7000CAD10668EFF3108772B63368002BFCD02A
:101A8000BFF35F8F0368BFF35F8F66461E6087F307
:101A9000108820BFE5E7002AB6D0C9E7FFFFFF7F27
:101AA000F11100103C05002000400540600B0120B2
:101AB000F0B557464E46DE464546E0B506000F00F7
:101AC00085B0EFF3058399468B46002B12D0384939
:101AD00000204B6ABB4206D38A6ADB1B591E8B412E
:101AE000B2424041184305B0F0BCBB46B246A946DD
:101AF000A046F0BD2F4B9A46DB68984653461B78AC
:101B00004046039300F038F94246039B0400043337
:101B10009B009B580D001B1A39003000001BA94187
:101B2000894510DC0DD020BF214A0020536A5B4557
:101B3000D9D3926ADB1B591E8B41B24240411843F4
:101B4000D1E78342EFD900F01FF932003B00121AAF
:101B50008B41002B1ADB00230193174B32000093BB
:101B600050463B00FFF7B6FD011E0FDD104B5A6AD1
:101B70005A451BD39B6AB34216D35046FFF702FE69
:101B80000B4A0020536A5B45ADD3D2E7084A0020D8
:101B9000536A5B45A7D30020926ADB1BB2424041E7
:101BA0005A1E934118439EE75A45E6D120BFE4E709
:101BB000004005403C050020F1110010F0B5CE4674
:101BC0004746110080B583B004009C460C9D194324
:101BD00000D16CE06146DB170193009353401E0077
:101BE000019B4B401F0000980199361A8F416346B4
:101BF0000A996B600B9BAC6029612A606B6100F0F5
:101C0000C3F880197941002902DA012031494042A4
:101C10002269EFF3108972B61368002BFCD0BFF372
:101C20005F8F0223E65E636972009219D2009B18EF
:101C300022699046002E42DB1A886280BFF35F8FD4
:101C4000002247463A6089F31088234A9860D96099
:101C50001A615A885D6101325204520C111C002A2B
:101C60002BD088B23204024359802069EFF31087E9
:101C700072B601680029FCD0BFF35F8FA18819807C
:101C8000A6802369BFF35F8F0021196087F3108856
:101C9000124823788446013199400120E368634467
:101CA0001960EA6003B0C0BCB946B046F0BD00237D
:101CB0000126002701229C4699E70121D1E7BFF3C5
:101CC0005F8F0023136089F31088012200205242A5
:101CD000E7E7C046FFFFFF7F211200103C20000015
:101CE000C268030030B50020002A00D130BD9968D9
:101CF00014144889844219DA600000194C69C00044
:101D000020180D69EFF3108C72B62C68002CFCD0F3
:101D1000BFF35F8F44881204120CA2420AD00A69F2
:101D2000BFF35F8F002111608CF310880020002228
:101D3000DA60DBE780242402224342800122086922
:101D40008A71BFF35F8F002404608CF310880878D9
:101D5000C968824002488446614401200A60E6E77F
:101D60003C20000010B5024A0248FEF78FFE10BD6D
:101D7000E49F0110E05100200300416A0A00986AC4
:101D8000596A8A42FAD17047034B596A0A00986A25
:101D9000596A9142FAD170470040054070B504007D
:101DA0000D00174A536A1900966A536A8B42FAD19A
:101DB0003000190024184D41AB4216D813D0104BF7
:101DC0002A005B6A9D4203D90D494B6A9342FCD3BA
:101DD000934207D10A4A02E0516A994202D1916ABC
:101DE000A142F9D370BDA642E9D9054B5B6A1C003C
:101DF0005A1CEFD0012201246442E5175242E3E766
:101E000000400540064A536A9942FCD807D1044B6A
:101E100002E05A6A914202D19A6A9042F9D8704718
:101E200000400540F8B5040006200D0000F078F9E8
:101E3000002844D0374B3849E3185A1E934180227A
:101E4000120494465B429B0D344A9B056344136025
:101E5000334A136018000A689043FBD12D4B314A76
:101E6000E31859424B4180215B00490006209952FA
:101E700000F056F92900C00000F006FB0130C3094C
:101E80001ED1402701226262A362266BF30722D48F
:101E9000E36A254B0620E51800232B60266300F03B
:101EA0003FF93900800000F0EFFA7023E26A5A40EF
:101EB0000E3313402B601D4B23630323A364F8BD33
:101EC0001B4A93421ED900231A4A1B4F6262A36227
:101ED000266BF307DCD5194B144AE3181A60656AC0
:101EE000A36A0620AD01ED1800F01AF9144900F0BC
:101EF000CBFAAD020100280000F0C6FA0021FFF77E
:101F00004DFFC5E74006800E9F011A003F180300F1
:101F1000B9E7C0460080FCBF08C0004000E00040B8
:101F200000F00040BC0B01202C1000000103000059
:101F3000FEFF0000FFFF0000C0FF3F003030000048
:101F40004E0E0000F8B5DE464E4657464546E0B513
:101F50008B4605000A991800160000F095FA0A9BB6
:101F60006C001F02324B64199C46A40064446368F1
:101F700081469F4200D967602B1FDBB29846012B38
:101F800030D9C02380229B01E31812011A60294B2B
:101F9000AD0059599A4600291BD17301E0262268E9
:101FA00053401E40802342465B01E3181E60012A15
:101FB00030D9802380229B01E31812011A60534616
:101FC0004A4667605A51F0BCBB46B246A946A04695
:101FD000F8BD586900F058FA013043001B18033B64
:101FE000FDD2DAE75B46012BCBD1C02303229B0154
:101FF000E3181A60023AA3681A42FCD07301E02683
:102000002268AD0053401E4080230A4A5B0192467D
:10201000E3181E605A462168514003220A401A60A4
:1020200001225B469A40A3681A42FCD0C1E7C04631
:1020300000800040E8510020F0B546464F46D646A5
:10204000C0B51F00344B44009C462418A4006444CF
:10205000636888461600FF2B02D880235B0063600C
:10206000031FDBB29A46012B30D9C02380229B018B
:10207000E31812011A60294B850059599946002925
:102080001BD17301E026226853401E408023524634
:102090005B01E3181E60012A30D9802380229B0156
:1020A000E31812011A6080235B0063604B465F51A6
:1020B000E0BCBA46B146A846F0BD586900F0E4F964
:1020C000013043001B18033BFDD2DAE74346012BE6
:1020D000CBD1C02303229B01E3181A60023AA36804
:1020E0001A42FCD07301E0262268850053401E404E
:1020F00080230A4A5B019146E3181E60424621682C
:10210000514003220A401A60012342469340A268CC
:102110001342FCD0C1E7C04600800040E8510020D7
:10212000014B8000C0587047E8510020F8B504000A
:1021300021481E0017000D0000F0A6F9010038002C
:1021400000F0A2F9069B36041B031E432368002BF4
:1021500020DB1A4B1A49E3185A1E93418022920140
:1021600094465B421B0B174A1B0363441360164AD9
:1021700013601F000A689743FBD1144B2560E218D7
:102180002123A06013602368002BFCDA0823E6609B
:102190001360F8BD3F2322681340AB42D9D1A36836
:1021A0001B051B0D8342D4D1EE22E368D2021340FB
:1021B000B342CED1EDE7C046001BB7000040FDBFE3
:1021C00008C0004000E0004000F000400430000083
:1021D0008023024A9B000B43D36270470080054076
:1021E000002310B50100988A1B8B984710BDC0468C
:1021F000162310B50100188802331B88984710BDBC
:10220000F8B54746CE4680B50F1E18D01423994620
:10221000043304000025012698464B46188843469F
:1022200021681B88984701C4431E98410135064028
:10223000AF42F2D13000C0BCB946B046F8BD01266D
:10224000F8E7C046AA23064A1B0113608D235B00F2
:10225000D3600449044B19605368002BFCDA7047C3
:102260000040024000B0FA00006002407047C046E3
:1022700010B50148FEF7DCFB08A0011070B5074D52
:10228000074EB54209D20024013E761BB60808CDA0
:10229000984723000134B342F9D170BD589C011016
:1022A000949C0110054B064A06491A60064A074BE2
:1022B0001A6010000B689843FBD1704700E00040A3
:1022C000BFCDFBFE08C00040FE7F3C0000F0004098
:1022D000044BDB6C002B03D18022034BD2021A602B
:1022E0007047C046000011504C201150044A054B65
:1022F0001A60054A1368DB018033FBD17047C04682
:10230000FFFFFF0100F0004008C000404022034BE7
:102310009A675A671A67DA667047C04600F001404C
:1023200010B5FEF741FC10BD70B5044D044CA96812
:10233000C022200000F094FCAC6070BD00ED00E015
:1023400000000020002310B5294C82B0A367FFF7DE
:1023500079FF0122274B1A60636C012BFCD1032209
:10236000254B1A60224A936B012BFCD10133009359
:102370000121224A22480433FFF7D8FE0523012118
:102380000093204A2048FFF7D1FE002202210420BA
:102390001E4BFFF751FE0022012105201C4BFFF7C9
:1023A0004BFE0022002107201A4BFFF745FE0022BA
:1023B00000210820174BFFF73FFE8023DB0000932E
:1023C000002200210920134BFFF7BCFD0022104B17
:1023D00000210620FFF730FE0420FFF7A1FE0E4982
:1023E00000F052F801000020FFF7F2FE02B010BD2D
:1023F000008000403CB0004030B00040002F6859E1
:1024000000800240008C864700C00240001BB700DD
:1024100040597307006CDC0240420F000148042160
:10242000014B18476005002001220010014B9B68FA
:102430001847000060050020124A936F9B0815D2D0
:102440009066D166002905D0FFE7FFE7FFE7516FEF
:10245000106F704704B580210906C217514000284B
:1024600000D0C84317F0D0FB002104BDF0B5146EB6
:10247000556E576F166FFFF7E3FF14665566576783
:102480001667F0BD000000D0114A936F9B0813D26D
:1024900010665166002905D0FFE7FFE7FFE7516F9F
:1024A000106F704704B5002801D00020C04317F01A
:1024B000ABFB002104BDC046F0B5146E556E576FDE
:1024C000166FFFF7E5FF1466556657671667F0BD90
:1024D000000000D094464A4A926F9208624601D2A8
:1024E00028E0C046F0B5464E346E756E776F366F95
:1024F00000F020F89446424A1466556657671667FE
:102500006246F0BD94463E4A926F9208624601D2FE
:1025100054E0C046F0B53A4E346E756E776F366F44
:1025200000F04CF89446364A1466556657671667AD
:102530006246F0BD002B24DB11D000293EDA00B545
:10254000C943404200D1013100F038F8C94340424C
:1025500000D10131DB43524200D1013300BD002ADA
:10256000EBD1002801D1002905D00020C90FC907EF
:1025700001D1C043410800B517F036FB002200230B
:1025800000BD00B500290ADBDB43524200D1013314
:1025900000F014F8C943404200D1013100BDC943E5
:1025A000404200D10131DB43524200D1013300F0FF
:1025B00005F8DB43524200D1013300BD002923D18D
:1025C000002B18D1002A0CD0BC460D4F38667A6615
:1025D00000210023FFE7FFE7FFE77A6F386F6746C8
:1025E0007047002801D00748010000B517F0FCFA39
:1025F0000022002300BD02000B00002000217047D4
:10260000000000D0FFFFFFFF002B00D0BFE0130C45
:1026100028D1002AE7D080B4114F39667A66FFE7E7
:10262000FFE730B4040C7B6F396F1B0423433B6618
:102630007A66FFE7FFE7FFE7C04684B27B6F3D6F36
:102640001B0423433B667A66FFE7FFE7C04600238F
:102650002C042D0C7A6F386F00196941B0BC70479B
:10266000000000D0F0B594460025140E01D11202EE
:102670000835140F01D112010435940F01D19200D5
:102680000235D40F01D152000135D40B0134254F4E
:102690007C66254C3C660E0C93B2FFE7FFE7FFE734
:1026A0003C6F6643360C7703BE467343DF0B5B0417
:1026B000C01AB941130C7343DB18C91ACE0866431C
:1026C000360CB64493B273431F0F1B01C01AB941B5
:1026D000130C73431F0B1B05C01AB941860D8F02E3
:1026E0003E436643360C092D24DB520A7243801A9E
:1026F0007703460A6643360C16235B1BDE40DF4039
:10270000BF1964466643821B7046043506330100D8
:10271000D940A840C01900D30131A24206D20023FB
:10272000F0BD0000000000D0FFFFFFFF121B0130D2
:10273000F3D3F1E709277F1BFE406446A2B2724340
:10274000801A00D20139220C7243130C1204821A2F
:1027500099410B007046043513370100F940A84039
:10276000801900D30131002B02D1A2420AD2F0BD60
:10277000013000D30131121BFAD2013BF8D1A24241
:1027800000D2F0BD013000D30131121BF7E7F0B5E4
:102790001C0C00D080E00CB400251C0A04D11B02E4
:1027A000160E3343120208351C0B04D11B01160F01
:1027B0003343120104359C0B04D19B00960F334325
:1027C00092000235DC0B02D192185B4101351C00EE
:1027D000971864410134464F7C66464C3C660E0CAB
:1027E000FFE7FFE7FFE7C0463C6F6643360C770321
:1027F000BE4697B27743C01B00D20139C01B00D23E
:1028000001399FB27743C91BC91B170C77437E045C
:10281000FF0B801BB941CE086643360C0C2D33DB11
:10282000B644120B1F053A431B0B97B27743C01BEC
:1028300000D201399FB27743C91B170C77433E047E
:102840003F0C801BB941860D8F023E43664329270A
:102850007F1BFE400C3D7746AF40BF1930BCA2B293
:10286000ABB272437343801A9941220C7243130C2A
:102870001204801A994102000B000137001BA94184
:10288000F9D2781E0021F0BD0C277F1BFE40774651
:102890007F0BAF40FF19E0E700245D1C07D0144F09
:1028A0007D663966FFE7FFE7FFE7FFE73C6F95B21C
:1028B0009EB265436643401BB141150C1E0C654337
:1028C000664336042F0C3E432D04401BB141994210
:1028D00004D202000B0020000021F0BD01D1904283
:1028E000F7D3801A994101349942F2D3F6E70000F8
:1028F000000000D0FFFFFFFF48404140484018B4AF
:10290000134B5B68019308BD18B4114B1B6801930E
:1029100008BD94460F4A926F920805D2624618B4D9
:102920000B4BDB68019308BD0A4AF0B5146E556E77
:10293000576F166F6246FFF7F2FF064A1466556638
:1029400057671667F0BD18B4014B9B68019308BD2B
:10295000800D0020000000D0FFB5504042405040A4
:1029600059404B40594000E0FFB5154F4C00640DF5
:1029700003D0BC4204D10C0314D80020090D090572
:102980005C00640D03D0BC4204D11C030AD80022B1
:102990001B0D1B0501264B4009D44B4003D58B4230
:1029A00000D18242FFBD9942FCD19042FFBD0B4352
:1029B000DB1803431343F5D0C9434918FFBD00009A
:1029C000FF07000000B5FFF7CFFF804100BDC04604
:1029D00000B5FFF7C9FF01D9002000BD012000BDEF
:1029E00000B5FFF7B9FF01D9002000BD012000BDEF
:1029F00000B5FFF7B1FF804100BD012040054A004E
:102A0000121804D85A00121801D80020704701206B
:102A1000704700000021002805D17047C1174840C9
:102A2000401AFAD0C90713B5064B1B6898470CBC6F
:102A3000441CA2401005120B0349091B0905194348
:102A4000114310BD5C0A01201F04000010B54C00AA
:102A5000620D8023D218DB00D21A5B057E2A10DDBE
:102A60009E3A13DACC170903490819435242D14060
:102A7000640001341532202A05DAD040084360434F
:102A800010BD002010BD0846604310BDC80FC0181F
:102A9000013810BD18B4024B5B6A019308BD0000F9
:102AA000800D002010B50148FDF7C2FF14A00110F1
:102AB000132370B51D78012D19D014DD1D48FFF7C3
:102AC00097FB06001C48FFF793FB1C4C802231004B
:102AD000200000F0C5F8022D06D01948FFF780FB52
:102AE000184B186070BD154C174BA364F5E7174BD6
:102AF000124C23606360A360E36023616361A361A0
:102B0000E36123626362A362E36223636363A3639B
:102B1000E36323646364A364E36423656365A3657B
:102B2000E36523666366A366E36623676367A3675B
:102B3000E367D9E75344000053460000800D0020AE
:102B40004C3300005C0A0120512B0010A52A001014
:102B500007B5604601880A0A0230DF2AFAD1C9B2F5
:102B6000820804D3028840880004104300E0006813
:102B7000014A5050039007BD800D0020514343434C
:102B8000C9188C46110C83B24B4310B4040C61433A
:102B900092B280B2504362431C041B0C001910BC5B
:102BA00059411304120CC018514161447047000090
:102BB00010B50148FDF73CFF7C9E0110132310B5B2
:102BC00010481C78FFF714FB0100012C0AD003DD2C
:102BD00080220D4800F044F80C48FFF701FB0C4B35
:102BE000186010BD084C5422200000F039F8220073
:102BF000084980322368002B00D1216004349442BC
:102C0000F8D1E9E753460000600A01204C33000088
:102C10005C0A0120B12B001010B5040016F05AFA1E
:102C2000002804D0034B04199C4200D810BD024870
:102C3000FDF7FEFE000004202CA0011010B516F0D8
:102C400053FA10BD01480421014B184770050020BC
:102C500001220010014B1B6818470000700500207E
:102C6000014B5B6818470000700500207047C046A4
:102C7000F8B55746DE464E464546E0B599460A9BAE
:102C800007009A460D9B884693460B9C9B073BD1B9
:102C90000C9B9C423DD21E1B0B9415000C005E4405
:102CA0002A004B46013521002020B847B542F7D114
:102CB000A0460B9C002C20D0454636195346321BAB
:102CC000013C185D29004B46B847002CF6D12B007B
:102CD000350098460D9B9B070FD55B46EC1A0C9B65
:102CE000A3420AD9464698462A004B463100202086
:102CF0000134B84701354445F6D32800F0BCBB4643
:102D0000B246A946A046F8BD16001500002CD3D146
:102D1000E0E716001500002CCED1EEE7F0B54546F1
:102D2000DE4657464E46E0B585B09C4610AB1B7854
:102D3000149F934698460F9C129E139DBB074CD43C
:102D4000002D42D1B44248D201233B4099460E9B0C
:102D5000013B9A46302304E0524601341355A64203
:102D600001D9202CF8D14B46002B00D183E00E9BDB
:102D7000013B99463023A54205D82EE04A4601344E
:102D80001355AC4229D0202CF8D1FB060CD57B057D
:102D900054D4A64263D0A54261D0119B102B50D0D1
:102DA000022B57D0202C32D1202301930E9B5A4660
:102DB0000093039763460295FFF75AFF05B0F0BCF6
:102DC000BB46B246A946A046F0BD01233B4099460A
:102DD00001233B422AD1B442B9D3FB061CD57B0563
:102DE000DBD4002CD5D1119B102B5BD0119B022B77
:102DF0006BD0302301240E9A13704346002B10D160
:102E00007B073ED52B260E9A631C1655CDE7230073
:102E1000013430260E9AD654202CC5D04346002BC0
:102E2000EED02D260E9A631C1655BEE74346002BA6
:102E30002FD0013DB44200D289E798E7119B102BB7
:102E4000B2D1BB0637D5202CAED058230E9A1355DD
:102E50000134A7E7202CA7D02300013407E0631E2C
:102E6000012CC0D0119A102A31D0022AD1D1622669
:102E70000E9AD65496E7FB06CED57B0500D488E79C
:102E80008BE723003E0790D520260E9A0133165576
:102E90008BE70C233B405A1E9341ED1AB44200D2FB
:102EA00055E764E7BB060ED478230E9A022413700C
:102EB00030235370A1E7202C00D175E778230E9AB8
:102EC000135501346EE75823EFE76033EDE70E9AB0
:102ED000A61E91464E44BA0602D55822327098E793
:102EE0007822327095E7C04610B5002800D110BD99
:102EF00001F09AFCFBE7C0460B0010B5002802D099
:102F000049681B68984710BDF0B55746DE464E46E7
:102F10004546E0B595B083460F00924698461E9A06
:102F20001F9B10001900209EFFF767FD002800D0AE
:102F3000EAE11E981F990122C54B5242FFF742FD5C
:102F4000002800D014E11E981F990122C14B524263
:102F5000FFF74EFD002800D0E9E01E981F990022DF
:102F6000BD4BFFF745FD002800D0C8E01E981F9913
:102F70000022BA4BFFF726FD002800D0BFE01E98C4
:102F80001F9900220023FFF71DFD002800D0E4E078
:102F900000230B93229B5B0500D4062600243023DC
:102FA00007E0172106AA013452181355013E202CC0
:102FB00001D0092EF5D81E981F99FFF747FDA84BA1
:102FC000F2009B181A685B68050008920993FFF7E6
:102FD00025FD02000B001E981F99FFF790FC089A30
:102FE000099BFFF7B0FC06900791FFF753FD814660
:102FF000FFF710FD02000B0006980799FFF77FFC12
:103000000022984B06900791FFF7F2FC002800D1B0
:103010000DE101239C46E1444846FFF7FBFC02001A
:103020000B0008980999FFF7D3FC002802D0002371
:1030300099460135002E00D1D9E006954D46B94696
:1030400014E006AA944617230A2163442800013499
:103050001F19FFF719FA3031397028000A21013E93
:10306000FFF712FA092D00D817E10500202CE8D14E
:103070004F46069D20240CAE06AA172394466344AF
:1030800099465B46B34606930FE04B4628000A215B
:103090000134E618FFF7D0F93031280031700A21E9
:1030A000FFF7CAF9051E00D1E4E0202CEDD1069B04
:1030B0005E469B460323229A1340012B18D1219B85
:1030C000002B15D00B9B002B00D1FDE0219B013B79
:1030D0002193202B0CD93023219A07E0172006A931
:1030E000013409180B55944200D3CCE0202CF5D1C3
:1030F000229B01940393219B0096029322E0229B42
:1031000052460493219B3900039358461E9B1F9CF3
:10311000029600930194434600F04AF9040020000F
:1031200015B0F0BCBB46B246A946A046F0BD229BF6
:103130005B070FD403224C4B2299019203912199F2
:10314000009302914346524639005846FFF790FDDE
:103150000400E4E70422454BEEE71E9A1F9B002083
:103160000021FFF7CCFB01231E901F910B9311E769
:10317000229B54469B0711D1219B042B0ED9219BE6
:1031800055469C465E46043C64442A00434601354D
:1031900039002020B047A542F7D1B346344D260070
:1031A0002B1F99465B46A3461C003200E878434635
:1031B0003900013DA04701364D45F6D123005C465C
:1031C0009B46229B04349B07A9D55346219AE31AB8
:1031D0009A42A4D95E4615002200434639002020B9
:1031E000B04753460134E31A9D42F5D897E72800CB
:1031F000FFF714FC02000B001E981F99FFF77FFBDE
:103200000022184B06900791FFF7DCFB0CAE00285C
:1032100000D031E7069807990022124BFFF7E8FB30
:10322000002800D028E7012301359D4324E7002230
:10323000069807990B4BFFF7C5FB002800D0F9E66D
:103240004B46002B5CD101239C46E144F2E6C0468C
:10325000FFFFEFFFFFFFEF7F65CDCD4165CDCDC116
:10326000A8C001100000E03F84A001107CA0011064
:103270008CA00110069B5E469B460323229A1340B6
:10328000012B00D181E0202C00D131E70B9B002BDA
:1032900027D02D23335501342AE74F46069D202C95
:1032A00000D1E7E63022331907E0172006A90134E0
:1032B00009180A55202C00D1DCE6A342F5D12E22B4
:1032C0000CAE0134F254D7E60C23229A134257D0A5
:1032D000219B013B2193A34200D9FCE6202C00D185
:1032E00006E7229B5B0703D52B2333550134FFE60A
:1032F000229B1B0700D4FBE6202333550134F7E65D
:10330000DB0700D496E69EE7229B55469B0711D12A
:10331000219B032B0ED9219B54469C465E46033DC0
:10332000654422004346013439002020B047AC42B6
:10333000F7D1B346B9465F461C4EEC1C2A00B07864
:10334000434649460135B847013EAC42F6D1229B7F
:10335000BB464F469B0700D4E1E65346219AE31A49
:103360009A4200D8DBE65E4615002200434639004B
:103370002020B04753460134E31AAB42F5D3CEE6E2
:10338000219BA34200D9A6E6B2E6219B002B00D1E7
:1033900079E70B9B002B97D0219B013B21939C420B
:1033A00000D298E6202C00D073E7A1E688A0011097
:1033B000F0B5DE4657464E464546E0B599B08146E3
:1033C0008B4692469846229A239B10001900FFF7DD
:1033D00014FB002800D0CAE0229823990122824BD6
:1033E0005242FFF705FB002800D0C0E02298239945
:1033F00001227E4B5242FFF7E5FA002800D0B6E0EA
:103400002298239900220023FFF7DCFA002800D03D
:10341000C9E1229B239C0893099408980999802369
:10342000269ADB001A400D928022269C120114403D
:1034300022000B94269C07000E001C4200D0ADE039
:103440000B00034300D0D5E0002A00D00AE222009E
:1034500006332493022313400C930223134200D01B
:1034600002E2259B042B00D20FE2043B0B930023C6
:1034700004250A930022229823990023FFF7A2FA39
:10348000002800D003E25A4B269A134004930B9B6A
:103490000393249B0293089B099C00930194594633
:1034A000434652464846FFF72FFD02002020269B48
:1034B0001F27034059424B415B421840531C08935D
:1034C000594643464530C8470A9AD317D4185C403A
:1034D000D30F0A936B1E0B9308AB9C4600256744E1
:1034E00001E0202D0FD020000A21FEF7CDFF01358D
:1034F0007E193031317020000A21FEF7C5FF260009
:103500000400092EEDD8052306930B9B594605931D
:10351000002304930A3303930A9B4846029310AB9B
:103520000093089A43460195FFF7F8FB0C9B002B8C
:103530002DD05346C41A259BA34228D94D465F4639
:1035400081461E00534639001A1920204346013493
:10355000A847A642F6D8534648462599C21A0132D2
:103560000023914200D386E1013018180FE0269B1A
:103570000493259B0393249B0293229B239C0093FB
:1035800001944346524659464846FFF7BDFC19B0E0
:10359000F0BCBB46B246A946A046F0BD01432BD1C4
:1035A0000B9B2200002B00D154E700230A93249B9D
:1035B0000A9A0024934200DD85E122982399002293
:1035C0000023FFF7FFF9002800D035E1269B084AC9
:1035D00002941A408023DB0013430493259B03933A
:1035E000089B099CCBE7C046FFFFEF7FFFFFEFFF83
:1035F000FFF7FFFF06232493B44B70009C46400D59
:103600006044FFF70BFAB24AB24BFFF79CF9B24A9B
:10361000B24BFFF779F93603B14B360B3343040055
:103620000D00380019000022AE4BFFF768F9AE4AD2
:10363000AE4BFFF788F902000B0020002900FFF7CE
:1036400063F9FFF703FA0A90FFF7E8F9A84AA94BD4
:1036500004000D00FFF777F90022A74BFFF754F99C
:10366000FFF7F4F9A54A0600A54B20002900FFF753
:103670006AF9040030000D000C96FFF7CFF9A14A5B
:10368000A14BFFF760F902000B0020002900FFF7B3
:1036900036F902000B0006000F00FFF754F9320064
:1036A00004000D003B0030003900FFF72DF9002227
:1036B0000E900F91954B20002900FFF72AF9002268
:1036C000934BFFF721F902000B0020002900FFF7C0
:1036D00020F900228F4BFFF717F902000B002000A2
:1036E0002900FFF716F90D008021040032003B008D
:1036F0000020C905FFF703F902000B002000290094
:10370000FFF702F902000B000E980F99FFF701F97D
:103710000022734BFFF7F8F87F4B0C9C9C466444E7
:1037200000222305FFF70FF906000F0002000B002F
:1037300008980999FFF746F900280AD00A9B30003B
:10374000013B39000A930022714BFFF7E2F80600B3
:103750000F000A9A330063323900C62A12D80222B7
:103760002698042510400B9A0C90002A25D1259B01
:10377000042B05D9002800D0A1E0259B043B0B9326
:10378000042541E00222269810400B9A0C90002A52
:1037900012D1259B052B76D9002872D1259B0525B2
:1037A000053B0B9334E0802212069446229B08933B
:1037B000239B6344099330E605250B4300D1F6E6CD
:1037C00008980999554A564BFFF70AF9002808D07E
:1037D000089809990022534BFFF7F4F8002800D00D
:1037E000E5E6249B002B1CD00D9B002B19D0249BBD
:1037F000013B2493259BAB4204D90C9B002B5AD050
:1038000002230C9300230B930A9B002B00D131E67B
:103810000898099932003B00FFF77BF8089009915E
:1038200028E6259BAB42EDD90C9B002B43D000230F
:103830000B9302330C93E7E78020269B3A4A00065D
:103840001A40802384460294089C099D2900DB00CD
:1038500013430493259B6144220003930B000092C1
:1038600001938EE60524A8E600230B930A93023306
:1038700004250C93FEE553468C46013B63441B1A1A
:1038800072E602230C930525C2E70423EDE58020B0
:10389000089E099F000639008446269A224B6144FF
:1038A000134004930B9B32000393249B02930B0061
:1038B00000920193F3E5259B5B1B0B93A4E7022386
:1038C00004250C93A0E79C1A013C76E601FCFFFF5F
:1038D000FB799F501344D33FB3C8608B288AC63FFF
:1038E0000000F03F0000F83F61436F63A787D23FBD
:1038F00071A379094F930A400000E03F1655B5BB0C
:10390000B16B0240EF39FAFE422EE63F00002C4038
:103910000000244000001840FF0300002D431CEB72
:10392000E2361A3F80842E41FFF7FFFFF0B5DE46F6
:1039300057464E464546E0B5A5B01E002E9B924622
:103940000C93CD4ACD4B80468B461A60002900D19E
:10395000EAE1002330789946002800D1ECE1C84B19
:103960004C460B93C74B454657460E930AE0631CE3
:10397000984622003B005946A84744463078002824
:1039800000D187E001362528F1D108239A46043B6F
:103990009946023B9846013B00229C460D943078A4
:1039A000711C0300203BDBB2102B03D80B9C9B0047
:1039B000E3589F460300303B89460D9C092B3AD9BA
:1039C000002398462A2800D1C1E000239A462E28D9
:1039D0004BD00300683BDBB2122B1ED80E999B0024
:1039E000CB589F4663460E001A43D8E743460E0065
:1039F0001A43D4E74B460E001A43D0E710230E00BB
:103A00001A43CCE753460E001A43C8E780235B00F5
:103A10001A43FF3B9C467078E1444E4667284FD8D6
:103A20002428A4D90300253BDBB2422B9FD896491A
:103A30009B00CB589F46002394461E0000E00131B6
:103A4000B3009B195B001E180878303E0300303B22
:103A5000092BF4D90123624689469C460023B046CF
:103A60009A460E00E1442E28B3D1302180204942ED
:103A70008C46C000024370784B4684446146092955
:103A800000D86CE12A2800D17AE101239C464E46F9
:103A9000E1449EE7A146A846BA46CA4503D8012399
:103AA0005B425344994653464A4659460020C04714
:103AB000200025B0F0BCBB46B246A946A046F0BDEA
:103AC0000300693BDBB20D930F2B00D94FE70121B7
:103AD00099408C466D49894661464B4619400F9185
:103AE000634649460B4200D028E10D9B0A2B3AD091
:103AF000072B00D03BE70C9B190008C98846002B18
:103B000000D14BE121200243914614A98C461F228B
:103B10000F2162448C4651460D950C91A24615002A
:103B20000F9902E020290CD0130064461C402000AD
:103B30003730092C00D80738013168541A090F2B87
:103B4000F0D80C9B54460D9D9A460F9133E10C9B87
:103B500002CB8846002947DB0C9301239C467078F2
:103B60004E46E14431E70C9B02CB14935346002BA5
:103B700000D138E19C4608780B000C908C4400285A
:103B800001D100F098FC89466146944603E05A78DA
:103B90000133002A01D08B42F9D1494662465B1AB3
:103BA0000C900F93530500D520E10223180010401C
:103BB0000D90134200D1CBE30D930B1BB1469A46F7
:103BC0005E460C9822003B003100A8475346013462
:103BD000185D0028F6D1B3464E460D9B002B00D051
:103BE000C7E1149B0C93C9E60C9301239C4628382B
:103BF00049420243884670784E46E144E5E67078D3
:103C00006C2800D17FE180235B001A43FF3B9C4678
:103C1000E14402E780239B001A4301239C4670780D
:103C2000E144FAE67078682800D173E180231A43F2
:103C30007F3B9C46E144F0E6672800D103E147283A
:103C400000D15AE1452800D15AE1049207214246A9
:103C50000C9B0392073352468B43190002920CC906
:103C60002800009201930C9122003B005946FFF777
:103C70009FFB040082E6C0462D390010B86000208A
:103C80000CBF011050BF01109CBF011041900000FB
:103C9000462800D1DBE00492072142460C9B0392A8
:103CA000073352468B43190002920CC92800009238
:103CB00001930C9122003B005946FFF725F90400BF
:103CC0005CE6631C984622003B0059462520A84725
:103CD000444653E60C9B04330D93631C99469207AC
:103CE00000D422E10C9B2200187859463B00A847DB
:103CF00043464444012B00D885E23300B8462E00E9
:103D00005F4625004C46994622004346013439005F
:103D10002020B047AC42F7D12C00BB4635004746C7
:103D20004E460D9B0C9329E6DB4B307898460023DA
:103D30009946002800D012E60024AEE66F2800D194
:103D400088E000D80BE31023782800D1CFE09A4315
:103D50000A239C4600230F930A330D9380E05646B6
:103D6000B1008919490001330E181878303E01005E
:103D700030390929F4D9B2461E000133994628E6A4
:103D80000C9B023602CB8A46C9435046C9170840ED
:103D900082460C933078731C99461AE61023100063
:103DA000984311331843814680201300C00003401C
:103DB000024200D1A9E64B460693082305935346D9
:103DC000049310230393002302930F9B220001937B
:103DD0001CAB009359463B002800FEF79FFF43466B
:103DE00004000C93CAE501235B42C3E60F9B5345D5
:103DF00001D953460F930223180010400D9013422F
:103E000000D1B7E10D93D1460B1B9A463300A14474
:103E10002E0022004D460C98B9465F469B4608E0AE
:103E20004B463900541CB0475346185D002877D0E4
:103E300022009542F4D15B46BB464F46A946350069
:103E40004C461E00C9E680231B011A43FDE62023D1
:103E50001A4320E708239C4600230F9308330D9351
:103E600080231100DB0019401A4200D116E10D2316
:103E70009A431000802302009B001A4014921842BB
:103E800000D0C2E1802302005B001A4091460C9AE8
:103E900004320F92184200D0B7E2430600D59FE1EA
:103EA000030600D419E30C9B1B880993002B00D058
:103EB000FCE110339843002900D1F7E10023994633
:103EC00043460593534604930D9B069003930023AA
:103ED000D2E0582808D0622867D102239C460023EC
:103EE0000F9302330D93BBE720231A43103B9C46EC
:103EF00000230F9310330D93B2E780231B011A4365
:103F000020231A43A1E6C0239B001A43F31C9946C1
:103F1000B07882E5C0231A43F31C9946B0787CE55B
:103F200035005E46BB464F4657E64346012B00D858
:103F300063E1631E43449A463300B9462E005F4650
:103F400055469B46A24622004B46013439002020AC
:103F5000B047AC42F7D135005E46BB464F46A1465E
:103F600054460C9B4A46187859463B004444A8479F
:103F7000D7E6A1460F9B984500D832E64444E41AA0
:103F80003300B8462E005F4625004C469946220075
:103F90004346013439002020B047AC42F7D12C0011
:103FA000BB46350047464E461BE680231000DB002B
:103FB00018401A4200D10FE1112118008A430D92D6
:103FC0000D9A802311009B0019408C461A4269D13A
:103FD000802311005B00194089460C9904310F9130
:103FE0001A4200D0CAE113005B0600D5F0E01300CE
:103FF0001B0600D459E20C9B00229B5ED9175A186D
:104000004A4092B2D90F0C91002B00D1F9E1100077
:1040100014AA944642461F23149252466344A8466B
:1040200016944D460400B946B2461F00159201E0B1
:10403000202D0FD020000A21FEF726FA01357E1927
:104040003031317020000A21FEF71EFA26000400EC
:10405000092EEDD8149B4F46A94645469846159B18
:1040600056469A46169C0D9B069343460593534627
:1040700004930A2303930C9B02934B4601931CABBE
:104080002200009359463B002800FEF747FE0F9B95
:1040900004000C9372E4C0466D2C00100C239A436C
:1040A0001000E7E607220C9B073393430132944646
:1040B0009C4462460C920CCBD90F0F91110019430E
:1040C00000D191E0D9171391129151401091139999
:1040D0005940119110981199129A139B801A994185
:1040E0001090119114AA00239446424699461492C6
:1040F00052461F336344A846B24616944E46109C5F
:10410000119DB94615921F0001E0202E10D020000D
:1041100029000A220023FEF7F5F9013630322B0080
:10412000BA550D0022000400002BEED1092AECD86C
:10413000149B1094119545469846159B4F46B146E1
:1041400056469A46169C0D9B069343460593534646
:1041500004930A2303930F9B02934B4601931CABDA
:104160002200009359463B002800FEF7D7FD0400CB
:10417000FFF704FC0F9B984500D8C1E18023DB00CA
:104180000D9343460F9A1B199B1A994633002E0034
:104190004D46B9465F469B460C9122004B46013482
:1041A00039002020B047AC42F7D143460C99013387
:1041B0000F930B7835000C935E46BB464F46002BA1
:1041C00000D10EE50D9B002B00D1F6E4002319E68B
:1041D0000C9B1B781A0015E710239A430D92EFE60B
:1041E0000C9B1B78099361E6002399460028AAD10D
:1041F000002200231092119374E70C9B2200187880
:1042000059463B00A8474C468BE50C9AFA3BFF3BCE
:1042100007329A430133994691444B460C931368F5
:10422000526815921A4306D1103290430022099227
:10423000002900D081E06122810600D54122D2B25E
:104240000A9214AA91460A9A00210A3A1492424606
:104250001792524618925A460991B3461F311E00D2
:104260000F9B4944BA4619941A950024674698460C
:104270008946159D16901B920AE03032D2B24B4609
:1042800001341A55A8454AD0202C4AD006000D000A
:104290003A00002330002900FEF734F9D2B2092A8F
:1042A000EBD9149B9C466244D2B2E8E761238206B4
:1042B00000D54123DBB20A3B0C93434614A91F22CD
:1042C0008C46159353466244A046B2464C46179717
:1042D000A9461700099D0D9E1490169308E03033EF
:1042E000DBB201343B55B5420ED3202C0CD0050077
:1042F00031002800FEF7C8F8CBB20929EFD90C9A93
:1043000094466344DBB2ECE7159B4D46A146444618
:104310009846169B564614989A46179FD0E5B74282
:10432000B2D9179B57469846189B5E469A461B9BE8
:1043300009949B461698199C1A9D4346059353462B
:1043400004930D9B0690039300230293099B05E7BA
:104350000F9B984500D914E701330F932DE41023E8
:10436000110099430D91692800D0BAE08023100014
:10437000DB0018401A4200D122E61DE60C9B1B68A8
:10438000DA0F1100002B00D18CE0DA17981850409A
:1043900014AA914642461F23149252464B44A0460B
:1043A000A946169704006546B2461F000C91159267
:1043B00001E0202D0FD020000A21FEF765F801351D
:1043C0007E193031317020000A21FEF75DF8260099
:1043D0000400092EEDD8149B444698460C9BAC462D
:1043E0001900159B56464D469A46169F0D9B029105
:1043F000069343460593534604930A230393634667
:104400003CE6002800D02EE602E60C9B1B6899468D
:10441000002B03D110339843002938D16123820641
:1044200000D54123DBB20A3B0C9343461693534617
:1044300014A91F228C4617932B006244A0464D46B8
:10444000B246189799461700149C0D9E159008E0E7
:104450003033DBB201343B55B5420ED3202C0CD0A7
:10446000050031002800FEF70FF8CBB20929EFD97B
:104470000C9A94466344DBB2ECE7169B14944446D2
:104480009846179B56464D469A461598189F4346A0
:104490000593534604930D9B0690039300230293C8
:1044A000149BEBE50028A1D172E70C9B1B68D91780
:1044B0005A184A40A6E580231000DB0018409C46AD
:1044C0000F901A420FD00220030013400F931042A6
:1044D00019D00023A1460F934CE50C9B1B68099350
:1044E000E4E40A0034E40223180010400D90134263
:1044F00000D03EE54346002B00D042E6FFF771FBBB
:1045000001330F937FE463460D93F3E710B50C007E
:1045100084B00394012402A902900093034813007D
:104520006242FFF703FA04B010BDC046F92E001036
:1045300010B5094A0300146884B0002C08D0012289
:1045400000910648524203A9A047012004B010BDC3
:1045500000F0B4F90020F9E7B8600020E92E00105F
:1045600000BEFDE7094A03001068002805D008498D
:10457000C3188B4207D81360704706480449C31814
:1045800010608B42F7D901204042F5E78C60002093
:1045900000000420FC0B012010B5FFF7E1FFC0462E
:1045A00070B5FDF76BFE074D074EB54209D20024EA
:1045B000013E761BB60808CD984723000134B3426C
:1045C000F9D170BD949C01109C9C0110030010B5A2
:1045D000080011001B68984710BDC046F0B5C646DC
:1045E00000B5437D07000C001600002B46D0002AC2
:1045F00017DD0B780A2B24D000239846012E13D008
:1046000001252900635C01350A2B26D0B542F8D17B
:10461000464509DCA419013C23780D3B5A4253411D
:104620003B7580BCB846F0BD4346E018A419F11AAA
:10463000013C3B68984723780D3B5A4253413B75F8
:10464000EFE7037D002BD7D102210F483B68984745
:10465000012EDFD001239846D2E7631E5B5C0D2B51
:10466000D4D0884504DA4346C91AE0183B68984715
:10467000022105483B68A8469847C7E70368110030
:1046800020009847CDE7C046F8C00110F0B5C646F7
:104690000B6806000C0000B5802B06D05A1C226067
:1046A000E418267180BCB846F0BD0F4B1D68002D84
:1046B00016D00B1D98460D4F02E02D69002D0FD02E
:1046C0002B68002BF9D03B68002B01D0AB42F4D112
:1046D000280041462268FFF781FF2D69002DEFD1A8
:1046E00001220023DBE7C0468060002088600020B4
:1046F000F0B54546DE464E465746E0B583B0914696
:104700001C0080460D00FDF73FFB0023304A1218C5
:104710004B41002B02DA01222E4B52422E49080057
:104720008A4615F081FA07006B1C03D1404615F04C
:10473000BFF80500002C27D0284E294B1C68002C00
:1047400018D04B46002B21D1264B994602E0246914
:10475000002C0FD02368002BF9D04B461B68002B90
:1047600001D09C42F3D120002A004146B047246981
:10477000002CEFD1002F26D1280003B0F0BCBB469F
:10478000B246A946A046F0BD174ED6E7154B99464E
:104790000A239B4602E02469002CEBD02368002BFF
:1047A000F9D04B461B68002B01D0A342F3D12A005D
:1047B00041462000B0476B465A462000DA71D91DA9
:1047C0000122B047E7E7504615F006FAD4E7C046A5
:1047D00040420F00FFFFFF7F580B0020DD45001017
:1047E0008060002088600020CD4500100A4A1368D0
:1047F000002B05D10CE01A001B691032002B07D0EA
:104800008342F8D1002902D11869106019617047FC
:104810000029FCD01060FAE78060002010B500F09D
:10482000ABF9012010BDC046F0B5CE46474680B575
:1048300083B06B460600DD1D2870FDF7A5FA002346
:10484000194A12184B41002B02DA0122174B52422F
:1048500017490800884615F0E7F9164B81461C6891
:10486000002C14D0144F02E02469002C0FD02368D0
:10487000002BF9D03B68002B01D09C42F4D12000E2
:1048800001222900FFF7AAFE2469002CEFD14B4634
:10489000002B05D1300003B0C0BCB946B046F0BD16
:1048A000404615F099F9F5E740420F00FFFFFF7F02
:1048B000580B0020806000208860002070B5040044
:1048C00014F0F6FF01230100050001222000FFF78C
:1048D0000FFF084B1C68002C06D06368002B05D026
:1048E00098472469002CF8D1280070BD2469002C59
:1048F000F3D1F9E780600020F0B5CE46474680B599
:10490000A3B004000D00FDF73FFA0023274A121858
:104910004B41002B02DA0122254B5242254E30003A
:1049200015F082F900232200019307002B00224892
:1049300001A9FFF7EBFD214B804699461C68019BBE
:10494000002B1AD0002C2FD01D4D02E02469002C22
:104950000FD02368002BF9D02B68002B01D0A34285
:10496000F4D12000019A02A9FFF738FE2469002C37
:10497000EFD14B461C6800230193002C06D06368DE
:10498000002B0BD098472469002CF8D1002F07D1B9
:10499000404623B0C0BCB946B046F0BD2469ECE740
:1049A000300015F019F9F3E70194EFE740420F00EA
:1049B000FFFFFF7F580B00208D4600108060002015
:1049C000886000200FB400B583B004A901C901912B
:1049D000FFF792FF03B008BC04B01847F0B50029F8
:1049E00015DD0E4B0D271A680D4B0E4CD3185D428A
:1049F0006B41451820215B001E5F0478A64207D05A
:104A000093691942FCD101301460A842F5D1F0BD80
:104A100093691942FCD11760F2E7C046C00B012030
:104A20000080FCBFBC0B0120204B70B504000D1EA4
:104A30001E682ADD002010211D4B013C1A68936975
:104A4000194214D1013093691942FCD113682354DF
:104A50008542F4D1002E08D050239363516B183B4C
:104A60000B4014498C4662441360280070BD002E30
:104A700008D050239363516B183B0B400D498C4673
:104A8000624413600028F1D10CE0002E0AD05022BD
:104A9000074B1B689A63596B183A0A4005498C46C4
:104AA00063441A6003204042E0E7C046D85100202A
:104AB000C00B012034100000064B10B51B68002B02
:104AC00006D00021044A12689163044A106898478E
:104AD00010BDC046D8510020C00B0120DC51002081
:104AE0000822034B19688B691A42FCD17047C046F3
:104AF000C00B0120F8B51A4F1A4B3A680500D318BD
:104B000058424341184E14331C003368002D02D024
:104B1000002B0FD0F8BD002BFCD0002120009563A6
:104B2000FCF762F820001149FCF79CF9104B356046
:104B30001D60EFE70E4B200019600C493560FCF753
:104B40006DF801212000FCF74FF850223B689A6372
:104B5000596B183A0A4007498C4663441A60D9E7F2
:104B6000C00B01200080FCBFD8510020B94A0010C2
:104B7000DC510020341000000D4B10B51B780D4B9C
:104B80000D4C1B780D4B02211B780D4B0020236030
:104B9000FBF77AFE02210120FBF776FEE121206877
:104BA0004902FDF73FF901210648FFF71FFE10BD3E
:104BB000343B0510303B0510C00B01202C3B051089
:104BC000004003408005002001230121084A1360B2
:104BD000084A1360084A080013689843FBD1074A43
:104BE00011608021490013680B42FCD07047C04619
:104BF00000E0004000F0004008C0004000C0044059
:104C000010B506F02BFE10BDF8B501230B720400A1
:104C100006F058FE0500431C0BD10F4B186859686D
:104C20000E4B22689860D9601900200052699047A5
:104C3000F8BDFDF7A9F8FA2206000F0000232800AE
:104C400000219200FDF79AFF801979410029E7DAE7
:104C5000012003494042E3E7B0BE0110980500205F
:104C6000FFFFFF7F70B5094D04002B78002B08D0A3
:104C70000123074920000B722368DB699847012054
:104C800070BD00F0DDFB01232B70F1E7EE0B01207E
:104C9000B005002010B50400036804499B699847DB
:104CA0002368200002491B6A984710BD9805002020
:104CB000B0050020002070477047C04610B5FDF7D2
:104CC00063F8002905D0FA2200239200FDF71AFCB0
:104CD00010BDFA218900FDF7D7FBF9E78368002BA7
:104CE00004D107E01A68002A06D013008B42F9D1DC
:104CF000002005E0030008331960002301200B6049
:104D00007047C046020083680832002B04D109E0D6
:104D10001A001B68002B05D08B42F9D11B680120BB
:104D2000136000E0002070474368002B04D107E0C7
:104D30001A68002A05D013008B42F9D1002004E044
:104D4000031D1960002301200B6070474368021D9A
:104D5000002B04D109E01A001B68002B05D08B4200
:104D6000F9D11B680120136000E000207047C046A5
:104D7000F0B55746DE464646C0B53E4B82B01A688F
:104D80005B680092019383688246002B2CD0082335
:104D900053449B46FCF7F8FF53469B6804000D0004
:104DA0005F46002B20D000221E0094469846B26831
:104DB000F36820002900801A9941002902DB1400C1
:104DC0001D00BC4637003668002EF0D162464346CF
:104DD000002A48D0116850460B6813604B6898470A
:104DE00053469B68002BD5D153465C68002C29D0D4
:104DF00000255646237A002B31D0210063682572A6
:104E0000300098472468002CF4D1B168B2460029DC
:104E100018D0009C019D0E0003E004000D00002E40
:104E20000ED0330022009868D9682B00121A8B41EB
:104E30003668002BF1DCF2D1002AEED1002EF0D141
:104E400000940195009B019C5246180021001361BB
:104E5000546102B0E0BCBB46B246A846F0BD24682F
:104E6000002CC7D1D1E7190053465C68002CBFD194
:104E7000CFE7C046B0BE011070B50F4C0F4D104AC1
:104E800024184D41A900A00F0843A90F69400D4BFC
:104E90006040FDF773FE4A01C30E1343CA0E58402B
:104EA0005140094B094AFDF769FE4A00C30F1343FD
:104EB000CA0F5840514070BD157C4A7FB979379E62
:104EC000B9E5E41C6D4758BFBB49D094EB113113D1
:104ED000F0B504684568060023002A00C6468068CD
:104EE000F16803430A4300B5134304D1FCF74CFFB8
:104EF00003000B43FAD023062A0A60402F061A4308
:104F0000230A3B43070CBC4669404B409846634626
:104F10000F041F43424003045A4043467B40326023
:104F20007360C20E4B011343C90E40010843B360C6
:104F3000A10FAB000B43A20012196B41F060D1012D
:104F4000580E520EDB0108431A4304001500430FAC
:104F5000D1001943C0000019694180BCB846F0BDBA
:104F6000F0B5DE4657464E464546E0B5AD4C97B0E7
:104F700005942478002C00D1D5E00EAB0D93AA4BFC
:104F8000AA4F0293AA4BAB4D9B465B461E685C68DA
:104F90009B680B935B46DB680C93A74B05931B78D0
:104FA000DBB20693FCF7F0FEFFF766FFA34B704001
:104FB0009B69614008900A91DB0433D5A04BDA6B02
:104FC000E0231340402B2DD0EFF3058399469D4BF2
:104FD0003E68984600239A462B004D467C689946C9
:104FE00030002100002D1AD0FCF70CFFEFF31082E7
:104FF00072B643461B68002BFBD0BFF35F8F3B6844
:10500000B34212D0BFF35F8F43465146196082F31B
:1050100010883E687C6830002100002DE4D1FCF748
:10502000EBFBE3E7FDF724F9CEE77B68A342E9D188
:10503000824B1400DE69FCF7A7FE0A2200238018C9
:1050400059414D4602000B1E02DA01227E4B5242AC
:105050000CC72A686B681000190001278018594195
:10506000374007430022009001912F606960BFF331
:105070005F8F744B1A6084F310887449029B8C46CE
:105080001B787349DB0063449868884249D000214B
:10509000FFF7F2FE089D0A9C45404C40EFF3108656
:1050A00072B6684A1368002BFCD038000199FFF7EC
:1050B000E3FE0B9B58400C9B5940BFF35F8F059B51
:1050C000069A1B78934208D05B460CCB5C405B464B
:1050D00055409A68DB68504059405F460D9B0E95DD
:1050E0005C609860D9601800FFF7F2FE109A119B7F
:1050F0000E9C0F9DBA60FB60059A3C607D60137842
:105100000133DBB21370BFF35F8F00224D4B1A6087
:1051100086F3108817B0F0BCBB46B246A946A0463D
:10512000F0BD9A60B3E74B4B009001919C464A4B0F
:105130004A4C9846A14665682468A10DAB02A202BC
:105140000B43100019000019694102900391029964
:105150000027890E8A4603998901019151460198D9
:105160000843029901908901009100980199001B60
:10517000A9410D006146040040C98C46A4197D4137
:105180004145DAD14B461C605D600EAB18000694B9
:1051900007950D9300F02EF90E9B0F9C0893099430
:1051A000264B9B69DB0400D4FAE0254BDA6BE02345
:1051B0001340402B00D1F3E0EFF305839A464023E0
:1051C00000249B460023009301941E4B5C469846A6
:1051D000164F0023994653463D687E68A246280034
:1051E0001C003100002C1AD0FCF70CFEEFF31082EB
:1051F00072B643461B68002BFBD0BFF35F8F3B6842
:10520000AB422DD0BFF35F8F43464946196082F30E
:1052100010883D687E6828003100002CE4D1FCF73E
:10522000EBFAE3E7F60B0120EB0B0120780D0020F1
:10523000D0000020C0000020EC0B01200000064040
:1052400000800040300100D0FFFFFF7F00000340DE
:10525000FFFFFF00001C042000200420C8000020E5
:105260007B68B342CED12300160054469A46009A7A
:10527000019B1000190080185941504BDA69012335
:105280001340034300930191FCF77EFD0A220023A3
:105290008018594102000B1E02DA0122484B52428B
:1052A0003A607B60012C66D1464DA346009B019C71
:1052B0002B606C60BFF35F8F0023434C236086F349
:1052C0001088FCF761FD80468946EFF3108672B6C0
:1052D0002368002BFCD0BFF35F8F059B1B78002B4E
:1052E00052D13A4BDA681F2A5DD05A691F2A5CD026
:1052F000DA691F2A5FD05B6A1F2B59D0FCF7B8FF11
:10530000FF23FF223249DB000A70324A02919446A1
:1053100000980199052263445A60FFF7ADFD82466B
:105320000C0006980799FFF7A7FD534661405840C7
:105330001290139140464946FFF79EFD80460C00AF
:1053400008980999FFF798FD43465840614014902A
:1053500012A81591FFF7BCFD149815991E4B9B469A
:10536000129A139B5C46226063600123059AA06039
:10537000E16013700CE0BFF35F8F002342461360BF
:1053800086F31088013C24E7114B0293124B9B4695
:10539000BFF35F8F00220C4B1A6086F31088F4E590
:1053A000FCF766FF08E700239B465B46DAB2A9E7F5
:1053B0001C3B9B46F9E702239B46F6E700000640AC
:1053C000FFFFFF7FC0000020300100D0000003403D
:1053D000EB0B012008000340D000002010B5FFF7C0
:1053E000BFFD10BD10B5024800F00CF810BDC0465E
:1053F000500A012010B508220149FDF731FC10BD0B
:10540000500A012010B588B004000D220021684622
:10541000FDF720FC0D22002104A8FDF71BFC4B2307
:105420006A466846137004A90D2214F0CDFB1521BD
:10543000082220006944FDF713FC08B010BDC046E7
:1054400010B501F0DBFC00F05DFB00F045FD00F065
:10545000F1FD06F04BFA01F05FFD00F085F906F072
:1054600067F910BD40BA80B27047C04600BA7047B5
:10547000F0B5C646584D04002B68884600B5002B91
:1054800003D02A7A824200D179E0544E2701EB689A
:10549000002B02D02A7DA24267D0AB69002B03D03B
:1054A0002022AA5CA24256D06B6A002B03D02C2289
:1054B000AA5CA24229D03B191B01F318DB7B002C0C
:1054C00032D0B27A022A65D0012C32D08D2252001D
:1054D000B25C022A62D0022C2FD0414AB25C022A6E
:1054E00000D16EE0032B0DD83E4D9B00585906F0BD
:1054F00067FD00223F193F01F719FB7B9B005A51C2
:105500000423FB7380BCB846F0BD3819000110308D
:105510004146AA6A3018984700236B623B191B0169
:10552000F318DB7B002CCCD18D225200B25C022A16
:105530004CD02B4AB25C022A3ED02B4AB25C022AE3
:10554000D0D12A4AB25C9A42CCD104223B191B0129
:10555000F318DA73D6E73819000110304146EA69CA
:10556000301898470023AB619EE7381900011030CE
:1055700041462A69301898470023EB608DE7070100
:105580003818164E000110306A683018984700230A
:105590002B607CE7F27B9A4296D1D6E72022FF323D
:1055A000B25C9A42D1D0022CC7D00D4AB25C022A1A
:1055B00007D0032CC1D195E70D4AB25C9A42BCD109
:1055C000C3E70B4AB25C9A42F3D1BEE72022FF3216
:1055D000B25C9A42E9D1B8E7085C0020405C002048
:1055E0002A020000F85B00203A0300003F0300009D
:1055F0002F020000564BF0B54546DE46574698460A
:105600004E460301E0B59B461D1843462D015C192B
:10561000E37A070089B0012B00D996E04D4A9B0040
:10562000D6580192002E00D185E01035454428005F
:1056300014F03EF9A022123081B29200362000F020
:1056400021FF8146002869D005AE0C2200213000E0
:10565000FDF700FB2089FFF705FF01233080B370C1
:105660003100FF330C224846B38001F023FA3A4B55
:105670000C269A464346013D029703936A786F1CB5
:105680003B0000242E2A07D15AE05A780134E4B2B4
:10569000591C2E2A49D00B00002AF6D1DA1B92B2EF
:1056A00090461D002200B218524534DC2200310021
:1056B000484601F0C3FA731C9BB2A4194246390054
:1056C000484601F033FAA4B22B78661CB6B2002B20
:1056D000D4D1039B0022310048469846029F01F036
:1056E000ADFA1E4B02340422049304A9A3B2484627
:1056F00001F01CFA3B0001995B448C461B014344BA
:10570000DA7ADB7B16499B009200585862443523B5
:10571000494606F0E5FB484601F00CF809B0F0BC3C
:10572000BB46B246A946A046F0BD5B1B9BB298465D
:1057300022000D00B7E70021FFF79AFEA672EDE701
:1057400000233D0000229846ADE70648FBF770F9BC
:10575000405C0020385C0020FEFF000000010001DA
:10576000F85B0020C0A001107047C046012800D996
:105770007047054B8000002902D00A68C250F7E745
:10578000024A1268C250F3E7385C002020C40110BE
:10579000F8B54746CE46454E454B80B58D2734007B
:1057A000002598467F00A37A022B32D029D8002BFF
:1057B0001DD0404B9946FFF711FEB37A80B2022B01
:1057C0003FD0F35D022B42D04346F35C022B47D01F
:1057D0004B46F35C022B4CD002230122A372002320
:1057E0002081E372280022736373FFF703FF013502
:1057F0001134EDB2FF34042DD5D1C0BCB946B0464A
:10580000F8BD032B4ED12368002B13D10023A372C4
:10581000EDE7237B013BDBB22373002BE7D1637BF6
:105820000133DBB26373042B29D023732800FFF705
:10583000E1FEDCE7013B2360002BD8D10023A372FB
:10584000D5E733898342B6D0F35D022BBCD1173341
:10585000FF33F35A8342AED04346F35C022BB7D1F9
:105860008A239B00F35A8342A5D04B46F35C022B5C
:10587000B2D1CE239B00F35A8342ADD19BE7E37AAA
:10588000002B08D10C4A5268002A04D0012263730D
:10589000E2722273CAE700212800FFF7E9FD002326
:1058A000A372A4E70548FBF7C3F8C046405C00209C
:1058B0002A0200003A030000385C0020D8A0011042
:1058C0000123F0B51E0000250640184205D000292E
:1058D00051DD057801392D02013003221300034008
:1058E00010424FD1072963DD0822524294468C446E
:1058F00067460F329743020004000832BF1822683F
:105900009A189A429B415B42D21863680834D318B4
:105910009342924152429B18BC42F0D1CA08614660
:10592000013AD2008018891A1A040830120C1B0C94
:105930009B18012910DD02889B18032905DD428888
:105940009B18052901DD82889B184A08013A5200FC
:1059500002398018891A0230012919D0EB181A0C63
:105960001B041B0CD318180C1B041B0CC018002E96
:1059700002D180B2F0BD0020030600041B0C000E13
:105980001843F6E7012911DD038802390230A9E73F
:10599000FF2102788D431543ED182B0C2D042D0C9F
:1059A0005B19180C1B041B0CC018E0E70023D3E79D
:1059B0001A00BCE7F8B557464E46DE464546E0B508
:1059C00091460A9A8A4611681B680A04120C090C4F
:1059D00052181904090C52181B0C9B181A0C1B04A2
:1059E0001B0CD3181F0C1B041B0C0400FF180028F1
:1059F00025D000239B46FF330126984665896068C1
:105A00002900FFF75DFFC019070C0004000C3F18C8
:105A10002E4209D05B46414673403A069B463B0AFC
:105A2000120C0B401A4317002468002CE6D15B4689
:105A3000002B04D03A063F04120C3F0E1743504689
:105A4000FFF710FD04004846FFF70CFD2318DB1993
:105A50001A0C1B041B0CD318180C1B041B0CC018AD
:105A6000C04380B2F0BCBB46B246A946A046F8BDD2
:105A700010B582B0049C0094FFF79CFF02B010BDEB
:105A800010B5FFF71DFFC04380B210BDF8B5CE467C
:105A90004746040080B500282FD000239946FF33E5
:105AA000002701269846658960682900FFF708FFEE
:105AB000C019070C0004000C3F182E4209D04B46B9
:105AC000414673403A0699463B0A120C0B401A4372
:105AD00017002468002CE6D14B46002B0AD038066C
