:020000041000EA
:1000000000B5324B212058609868022188439860DF
:10001000D860186158612E4B002199600221596106
:100020000121F02299502B49196001219960352056
:1000300000F044F80222904214D00621196600F024
:1000400034F8196E01211966002018661A6600F04E
:100050002CF8196E196E196E052000F02FF8012189
:100060000842F9D1002199601B49196000215960AB
:100070001A491B48016001219960EB211966A021F2
:10008000196600F012F800219960164914480160C1
:100090000121996001BC002800D000471248134993
:1000A000086003C880F30888084703B5996A0420EC
:1000B0000142FBD001200142F8D103BD02B5186610
:1000C0001866FFF7F2FF186E186E02BD00000240BE
:1000D000000000180000070000035F00212200005C
:1000E000F4000018222000A00001001008ED00E03C
:1000F00000000000000000000000000074B24E7A12
:1001000000200420F7010010C3010010C5010010F9
:10011000C1010010C1010010C1010010C101001097
:10012000C1010010C1010010C10100109D79001033
:10013000C1010010C1010010F9790010797A001096
:10014000CD010010CD010010CD010010CD01001037
:10015000CD010010CD010010CD010010CD01001027
:10016000CD010010CD010010CD010010CD01001017
:10017000CD010010CD010010CD010010CD01001007
:10018000CD010010CD010010CD010010CD010010F7
:10019000CD010010CD010010CD010010CD010010E7
:1001A000CD010010CD010010CD010010CD010010D7
:1001B000CD010010CD010010CD010010CD010010C7
:1001C00000BE00BE00BE00BE00BE00BEEFF3058054
:1001D000103800BEF2EB887168EF001094EF001049
:1001E0003802001090A31AE71E481F49086006C88D
:1001F00081F3088810471D480068002801D019487D
:10020000F3E70DA40ECC002902D000F012F8F9E7B4
:100210001749184A002000E001C19142FCD116495B
:100220008847164988471649884700BEFDE701C937
:1002300001C29A42FBD3704794EF0010C000002027
:10024000CC090020A0F800100000042000000420C9
:10025000A0F800100010042000100420000000008E
:10026000704700000000000008ED00E0000000D032
:10027000CC090020A4110020195A00108108001098
:10028000D9590010F8B5C04606480749091A8B101D
:10029000C90FC91810B5491003D0044B002B00D06A
:1002A000984710BDCC090020CC09002000000000B8
:1002B000054B10B5002B03D00449054800E000BFF2
:1002C000FFF7E2FF10BDC04600000000E010002074
:1002D00090DE00100423F0B5C6468025D024984651
:1002E000042700B5AD0024060220676106F080FCFB
:1002F000082643460220A361666106F079FCA661E8
:1003000008360220666106F073FCA66110360220F2
:100310006661013D06F06CFCA661002DE4D180BC55
:10032000B846F0BDF0B5DE46454657464E46E0B508
:100330009BB001F0A9FA002001F090FB01F020FA37
:100340000F2001F02BFED024802324061B026362C1
:100350000220636101F022FE042303206362A36193
:1003600001F01CFE082304206362A36101F016FE65
:10037000102305206362A36101F010FE2023E02713
:100380006362A36105F0FAFE1F211A2001F0C4FD8B
:10039000DE4C002200211A2001F0D8FD00211A2095
:1003A00001F0E8FD2368DA4AFF013B4013600A20B0
:1003B00006F01EFCD74805F0BDFCD74805F0BAFC96
:1003C000042314269846D54D2368D14A3B40136038
:1003D000434680222B60520023681342FCD0012048
:1003E000013E636806F004FC002EEDD1CC4B642581
:1003F000984600239946E023DB019B4604239A4656
:100400004B46B1461E00C14CC44F5A4623681340A8
:10041000BF4A1360534680223B6052002368134258
:10042000FCD063689AB21B041B0C9944131CB242A3
:1004300000D2331C9EB2131C424500D943469BB2E6
:100440000120013D984606F0D3FB002DDDD133009D
:100450004E469946B34D64213000099502F0FCFEEA
:1004600042464B469C1AA4B221002880AE4805F0B3
:10047000E5FC29883C3464226400A14202DD0A00C4
:10048000783A92B2A94BAA481A800B9305F0D6FC91
:100490000022099BA74819880C900B040B430360AA
:1004A00043608360C360036143618361C36103622E
:1004B00043628B00A0485B189B0003609F4BA04FDA
:1004C0001A6004939F4BA04E19800D939F4B3A6086
:1004D0001A6098469E4B32601A700093039006F0A3
:1004E000B1FB9C4B059318609B4B1A000E930023A5
:1004F000136006F0A7FB994B19909A465546984B06
:100500001593984B1293984B1393984B9B46984B8B
:100510000193984B0793984B1093984B0F93984BDC
:100520000893984B1693984B0A93984B1193984BBA
:100530001793984B1493E021744AC90113680B4038
:1005400073490B600421754B1960FC3113680B4231
:10055000FCD0536899469CB22B88A34200D123E17A
:100560000023424613608C4B2C809C421DD9396875
:1005700001313960322900DD35E100233360009B11
:100580001B780293002B24D000F09AF978212820C0
:1005900000F0DEFF5B460198196800F0E3FF01F010
:1005A00001F9322006F024FBC5E700233B60002C54
:1005B000E3D13168013131603229E0DD009A013345
:1005C0001398137005F03AFC009B1B780293002BE4
:1005D000DAD1049A039B10681B680C999C4643006F
:1005E000CA5ACC5249460B041B0C6344991A039B0C
:1005F000894619600130142102F006FE049A48462B
:100600001160142102F028FE0004000C03F094FC99
:10061000624903F084FC0D9C8146208803F08CFC29
:100620005F4903F07CFC011C484603F061FC03F0C9
:10063000A5FC83B29A46238006F004FB81464A4615
:10064000059B1868101A03F071FC564903F067FC0B
:100650004A46059B041C1A60099B1B881800994692
:1006600003F064FC0690504603F060FC011C069801
:1006700003F03BFC211C03F052FC0E9C216803F0AC
:1006800037FC0B9B20601A88079B1B78002B00D03F
:100690009EE0924500D3B0E048465146091AC8177B
:1006A000091841401E2900DCA7E010980F9C016842
:1006B000236001310160022906DD03330360089BDA
:1006C0001C78002C00D1A5E000F0FAF80A212820BF
:1006D00000F03EFF0A9B0198196800F043FF089B59
:1006E0001B78002B00D185E0119B1C687821282005
:1006F00000F02EFF2100019800F034FF01F052F8C5
:10070000052119A806F036FA15E7C04600C00440D6
:1007100000D0044090DE0010B4DE001000E0044081
:10072000FF0F00008C110020E0DE00109A11002065
:1007300008DF00105010002078110020CC1000209D
:10074000C410002094110020DC100020C8100020EC
:10075000A0110020D4100020D010002096110020FD
:100760003CDF001060DF00108CDF00103002002042
:10077000B8DF00109C1100207C1100206C110020BB
:10078000A1110020BCDF00103C0200203402002038
:10079000F0DF001038020020FE0F0000CDCC4C3EF0
:1007A000CDCC4C3F0AD7233C434642461B6801331D
:1007B000136096225200934200DCD4E60123009A93
:1007C000159813704B461904090C05F037FBCAE65F
:1007D000924500D278E7029B079A1370109A136033
:1007E0000F9A136070E70123009A1298137005F0B6
:1007F00025FBC2E6149B1C6878E70F9A1368013347
:100800001360022B00DC5FE7002310990B600333B9
:10081000136059E751464B4616985B1A05F00EFBDC
:10082000012399464A46089B1A7000F049F80A21AC
:10083000282000F08DFE019B0A9A9A461800116844
:1008400000F090FE7821282000F082FE119A504698
:10085000116800F087FE00F0A5FF052006F0C8F93A
:10086000FFF738FD179805F065FA4A46089B1C709B
:10087000109B1C600F9B1C60079B1A7024E7C046EE
:1008800000B583B005F006FAFA20C00002F054F873
:10089000084805F04FFA00238022019301330649EE
:1008A000009352010023054805F02AFD06F014F8D4
:1008B000FEE7C04608E0001030E0001025030010FD
:1008C000F0B54E46DE4657464546764BE0B599466E
:1008D0000020185E744B75491B8889B00A88019006
:1008E00003910293002873DD561EB0B236B2079012
:1008F000002E00D173E001239B1A9AB21BB204921E
:10090000DA0FD3185B10059300239846684BB34663
:100910009A46684B0693434600935B46002B00DBE8
:10092000B9E0049B5C4698460027059D009E53460F
:100930001B68002B00D198E03200224312040FD430
:100940004A46128896420BDA039909888C4207DAE4
:100950006243029992195200D1520122554B1A70EA
:10096000002D03DA013E454436B22DB2013424B2E3
:10097000A74226DB534618684246002180463300D2
:1009800023431B040ED44B461B889E420ADA03986D
:100990000088844206DA4046634302999B195B0053
:1009A00019520121002D03DA013E551936B22DB23C
:1009B000013424B2A742E2DA002902D00122069BC8
:1009C0001A70009E019A013633B200939A42A4D164
:1009D00009B0F0BCBB46B246A946A046F0BD354FB3
:1009E000334ABB460125984617008A4634003B68C7
:1009F000002B30D0002C49DB4A461288A24245DD4C
:100A000052461288002A41D041466200D152013438
:100A1000284B24B21D70A64217DB00223968002C37
:100A20000BDB4B461B889C4207DA53461B88002B86
:100A300003D0424663005A520122013424B2A64236
:100A4000EDDA002A01D05B461D700136019B36B2FB
:100A5000B342CBD1BCE7200001344246002124B28E
:100A600001F076F9A642C2DAEFE721003000029ADF
:100A700001F06EF9002D03DA013E454436B22DB285
:100A8000013424B2A74200DB51E79AE7013424B2D3
:100A9000A642C2DAD9E75D10079B5F46984600245C
:100AA00044E7C0468A1100208E11002088110020E2
:100AB000BC1000209D110020F0B55746DE464E4682
:100AC0004546E0B583B01F006B4606001B8E781AC2
:100AD0000C008C46C117019343184B40951B0093A3
:100AE000EB17E9185940009B9246B3468B4244DC11
:100AF000B24200DB92E0E01BC51740196840B51A0E
:100B0000ABB22DB29946EB0F9C4665446D10A742DF
:100B100000DB3EE134003E002700140001239B4629
:100B2000009B82B290468B4250DDA54B9A465346BD
:100B30001B680093002B00D119E1230033431B04F1
:100B400010D4A04B1B889E420CDA9F4A1288944214
:100B500008DA6343009A01999B195B0099520122BC
:100B60009A4B1A704346EB1A9AB21DB21B0467D413
:100B7000013424B2A7426FDAA4E0A74216DAB01A11
:100B8000C51740196840E51BABB22DB29946EB0F73
:100B9000984645446D10B24200DB0AE126003A0057
:100BA000340057463E0027001400B7E783B200B276
:100BB000C50F2D18994608006D10B242AEDC844B6B
:100BC00082B29B46009B90468B42AEDC7C4B9A46A1
:100BD00053461B680093002B00D1B7E0230033433A
:100BE0001B0410D4774B1B88A3420CDD764A128875
:100BF000B24208DD7343009A01991B195B009952B8
:100C00000122724B1A704346EB1A9AB21DB21B04B2
:100C10005FD4013424B2BC4267DD53E0ABB22DB2E5
:100C2000E80F451999466D10A74200DDBAE06B4602
:100C30001B8834009846664B170066469B46C5E7FE
:100C400001345E444A4424B236B215B2BC4239DCA7
:100C5000009B002B00D16AE753461B6859499A460E
:100C6000594B0A009C465346002000934B46414690
:100C7000814690469A46330023431B040FD44346D3
:100C80001B88B3420BDD62461288944207DA634345
:100C9000009A01989B195B009852012399466B1AA0
:100CA0009AB21DB21B0403D55E44524436B215B24B
:100CB000013424B2BC42DEDD4846002802D00122C5
:100CC000424B1A7003B0F0BCBB46B246A946A046E0
:100CD000F0BD01345E444A4424B236B215B2BC427F
:100CE000F0DC009B002B00D172E753461B683549AE
:100CF0009A46354B0A009C465346002000934B46CB
:100D00004146814690469A46330023431B040FD444
:100D100043461B889C420BDA62461288964207DAE9
:100D20007343009A01981B195B009852012399465E
:100D30006B1A9AB21DB21B0403D55E44524436B2FC
:100D400015B2013424B2BC42DEDDB5E7019A3100B0
:100D5000200000F0FDFF4346EB1A9AB21DB21B04BF
:100D6000B7D4013424B2BC4200DC31E7AAE7019ACF
:100D70002100300000F0ECFF4346EB1A9AB21DB29E
:100D80001B0400D55CE7013424B2A74200DBCEE6A9
:100D900098E70F4B3E0014005F469B46BC4200DCC8
:100DA000BEE68FE701233400170066469B46009895
:100DB000F4E7074B3C00160067469B46B0E6C0468A
:100DC000BC1000208A110020881100209D110020F5
:100DD000FFFF0000F0B5DE464E4657464546E0B5FB
:100DE0009FB09B4628AB1C8829AB1B7810900D93B5
:100DF0002AAB1B780E000E93964B1868002800D182
:100E000040E20521062503890E9CD31ADBB2426815
:100E1000DB00D21893780B93D3781A9351560D9B1D
:100E20001B9155572343012B00D813E22B0011913E
:100E30001A99002900D1EAE001210E9FC91B8CB24A
:100E400009B20994CC0F641861100B9C0A91002C14
:100E500000D1DCE0BC467B43128801689BB20C9257
:100E6000B2B20F91D11889B28846511E61445B1805
:100E70009BB25219149393B2129300230493764BAE
:100E800013941D93754B00240693434615935B46BC
:100E9000199403930B9A139B9B1ADBB2542207936A
:100EA0006B469B1800269E5F6B46043A9B180022F7
:100EB0009B5E9B469E4200D0BDE000231C00039B2E
:100EC0009A461D9B994609E0049B01345B00DBB206
:100ED00004930B9BE4B29C4200D37CE0079B5A1C1A
:100EE000D2B207925B0706D10C9A0F99531C8A5C09
:100EF0009BB204920C936B461B7C5BB2002BE3DA33
:100F000040226B469B180D9A1D88012A00D085E06F
:100F10000E9B012B00D17BE1119B1B19ED182DB20B
:100F20006B1C98469B464C4B4D4F05934B4B169470
:100F300008932C003B68002B3DD032002243120462
:100F40000FD4059A1288A2420BDD08990988B14294
:100F500007DD5146724312195200D1520122414B12
:100F60001A70013424B2A5421EDB002148463A68BB
:100F70000297330023430CD40388A34209DD069F64
:100F80003F88B74205DD514673431B195B009952F8
:100F90000121013424B2AC42EBDD8146029F0029DD
:100FA00002D001222F4B1A7043461DB25D450FDA65
:100FB0006B1C9846BDE7200001345246310024B234
:100FC00000F0C6FEAC42B5DD43461DB25D45EFDB29
:100FD000169C79E704960E99199B8C460133DAB278
:100FE000159B0B9963449BB21593149B1992634410
:100FF0008C469BB21493139B6344DBB21393129BF6
:1010000001339BB212931A9B934200D042E71FB068
:10101000F0BCBB46B246A946A046F0BD9346119B24
:10102000E3185343ED182DB2AB44AB4500DC4BE75E
:101030006B1C984677E70E9B0896013B9BB21C936E
:10104000074B00279946044B049E0293034B079DD0
:10105000059310E0B81000208A11002088110020AC
:10106000BC1000209D11002001370B9B7600FFB2C1
:10107000F6B2BB42AED92B000135EDB25B0705D10C
:101080000C9A0F99531C9BB28E5C0C9373B2002B7D
:10109000EADA40226B469B180D9A1B88012A00D081
:1010A00080E00E9C012C00D18FE0119A1696D21987
:1010B0009B181BB25A1C9046079217971895099ACD
:1010C0005C469246089A0A9D16005A4500DC13E2D7
:1010D0001F004B461B68002B4CD03A0022431204E1
:1010E0000FD4C74A128897420BDAC64909888C4246
:1010F00007DA62430399D2195200D1520122C24B3E
:101100001A70002D03DA013F55443FB22DB201346D
:1011100024B2B44226DC4B460021524618680490A3
:101120003B0023431B040ED4029B1B889F420ADA18
:1011300005980088A04206DD634303990498DB19F3
:101140005B0019520121002D03DA013F55193FB20E
:101150002DB2013424B2B442E2DD002902D00122D2
:10116000A94B1A704346079A1BB2934216DA5A1CCF
:101170009046A4E721003800039A00F0E9FD002D15
:1011800003DA013F55443FB22DB2013424B2B442D8
:101190009FDD4346079A1BB29342E8DB169E179FDA
:1011A000189D61E711008C46119AD2194A439B1889
:1011B0001BB29C4462460792634500DB54E75A1C0D
:1011C000904616961797189579E71B9A98188F4BA3
:1011D00038181A6880B2002A4AD0129B03431BB207
:1011E000002B00DA40E7864B1B889C46984200DBC8
:1011F0003AE78449129B09888B4200DB34E7614659
:101200004B4303991B185B0099527F4B1C702BE7D3
:101210001B9B7E4FE8183A68201880B2002A1DD028
:10122000129D2B0003431BB2002B00DA4CE6744BDB
:101230001B88834200DC47E672490988A94200D82E
:1012400042E651466B431B185B0099526E4B0E9A57
:101250001A7039E6002100231191E9E56B46483206
:101260009B180021595E524600B200F071FD2BE63A
:101270006B4648229B180021595E039A00B200F089
:1012800067FDF1E65E4B109908931B88994200DBDD
:10129000BDE65C4B09931B889E4200DBB7E60D98C8
:1012A0008446430063448C465B006344002B00DCAF
:1012B000ADE60E9BDF00BB19002B00DCA7E6AF2AD2
:1012C00000D916E16B4640215B181D8893009B18DE
:1012D0004F4A0F969A186B1D9A469BB20793B3B26A
:1012E00005934A4BA9460B9353461600BA46A046AF
:1012F0002F000C95109333780D9C03934B461BB233
:101300009C46069308230493002302930E9B644497
:10131000013B0A934B46B9465F461193129601234F
:10132000039A134276D06B461E890D9B012B03D185
:101330000E9D012D00D198E00E9B069D5E43059BFE
:101340009C466644B3B236B2AC4214DD0A9A944667
:1013500063441BB29B463B005F469B465B462A00AC
:1013600028000135009331003B002DB2FFF7A4FBAC
:10137000A542F3DB5F46029B01335BB20293039B02
:101380005B080393049B013BDBB20493002BC6D1A3
:10139000119BBB464F4699460D99129E49448BB20C
:1013A00099460137079BBFB20136BB42A3D1109BC0
:1013B000574644469A460C9D0F9EC34500D126E6EB
:1013C0000D9B012B00D1AAE01A0094469B006344B8
:1013D000ED1828B2BBB21718874200DC17E6451C8F
:1013E000721E9B181BB2984600E0451C0200434643
:1013F00031000094FFF760FB28B2B842F5DB06E647
:101400008A110020881100209D110020BC100020AE
:1014100038E300104745AED06B461E890D9B012B6B
:1014200002D10E9D012D3ED00E9B069D5E43059B75
:101430009C466644B3B236B2AC429CDD0A9A9446EE
:1014400063441BB29B464346B8461F002A0028004F
:1014500001355B46310000972DB2FFF72DFBA54209
:10146000F4DB3B004746984685E7059BF118364B71
:1014700089B21A68002A35D04B460B431BB2002BA9
:1014800000DA78E7089B1B88994500DB73E7099829
:101490000088814200DB6EE74B434B445B009F5268
:1014A0002A4B1D7067E7059BF1180B9B89B21A68E0
:1014B000002A2DD04B460B431BB2002B00DA5AE713
:1014C000089B1B88994500DB55E7099800888142F5
:1014D00000DB50E74B4341464B445B0099521B4BAA
:1014E0001D7048E74B463A0009B218B200F030FCD4
:1014F00041E70132D2B2E5E660221C9952426A44C9
:101500000AB2CD0BAD1834008A465E466D10DFE599
:101510004B46424609B218B200F01AFC2BE70E9B6C
:10152000012B05D0534618B2451CBBB22F0057E71C
:101530006B461C20185EF31D020031001BB20094A4
:10154000FFF7BAFA63E5C046BC1000209D110020E9
:10155000024B1880024B19807047C0469011002042
:10156000921100200FB4F0B5DE4657464E46454670
:10157000E0B58FB0784C18AA02CA20000D9208F08E
:1015800085F8200008F02CF9002831D08046A044CE
:101590004746724B724E0593724B9A46724B0693B6
:1015A00033682278002B2DD00A2A00D16FE00D2A53
:1015B0001BD0197A8A4218D3987A904215D358686A
:1015C000511A8046C9008844414689788B460029D3
:1015D00000D07BE0654B614D994643464A461B79F6
:1015E000127853432A889B182B800134BC42D7D1F0
:1015F0000FB0F0BCBB46B246A946A046F0BC08BC42
:1016000004B018470A2A53D00D2AEED0534D0020BB
:10161000295E8846554908788946534983460978A2
:101620000791504908910020095E51480078002830
:1016300014D0584640008446DC446046400084464E
:101640004C48C4440088844508DD2B80079BDB00A0
:101650005918089B09B21980002398460798464BF1
:1016600001341B880290584601904448008800903D
:101670004046FFF7AFFB4B461B785A009B182A8861
:101680005B009B182B80BC4200D089E7B0E70022AA
:10169000059901340A80069A1B7B127853435246FF
:1016A00012889B1852461380BC4200D078E79FE70F
:1016B0002A4D2C4A2B802C4B11881B780134DB00DF
:1016C0005B181380BC4200D06AE791E74046C078BF
:1016D000224D00283DD00021685E244907908946AC
:1016E00021480978007809911E490A900B91002041
:1016F000085E08901E48007800281CD040464079BB
:10170000594640B28446099861444143079884464B
:1017100018486144008881420DDD002129801B7B2F
:101720000A98434308988446634418B20B9B089078
:101730001880002307930A990F4B07981B88029182
:10174000099901910D49098800910899FFF742FB19
:1017500043E7064B994640E708110020901100200E
:10176000B810002092110020440200204502002001
:10177000400200208A11002042020020981100201F
:10178000054B064A1B88108810B55843400002F0EC
:1017900043FC034B186010BD8A1100208811002003
:1017A000BC10002000B5094B83B0196800290BD08C
:1017B000074B084A1B88128800200091002100F086
:1017C000DDF90022044B1A7003B000BDBC100020EC
:1017D000881100208A1100209D11002070B5214C35
:1017E0002149206804F02CFC022123681F485A6814
:1017F0001818016018680A40CD31814380204001EB
:10180000181801601A4901258C4663441A60194B67
:101810000121188800F080FB174B0121188800F087
:101820007BFB164C208800F0B9FB2A002388D024CB
:101830009A40134E240630886262626100F0AEFB6B
:101840002A0033880F4E9A400023F05E6262626184
:10185000431C06D000F0A2FB0022B35E9D406562EF
:10186000656170BD50020020005A62020430000021
:101870000420000048020020460200204E02002002
:101880004C0200204A020020F0B5DE464E46454696
:1018900057460124E0B589B0FFF7A0FF2200664B50
:1018A000D02502931B88654E9A402D06AA6100221E
:1018B000B35E002B00DA97E022009A400520AA616F
:1018C00001F03AF80022B35E96209C406C6101F072
:1018D00033F806AA0723944663440593584B0393B1
:1018E000584B9B4618239A46153B0193023B994659
:1018F000D0231B06EF22984602275546524C06E09D
:10190000013DEDB2002D62D0637822780193494603
:10191000A31C0493029B059C1B88C72699400B00BF
:1019200041468B6149462270039AB246138899401A
:101930000B0041468B615946086844494268431888
:1019400080211F6003684901734008363340411805
:101950000B603F4B3A40C31821001A6001220CF083
:101960005FFA039A019813884A469A401300424648
:101970007F2453615A460440344910684218514646
:101980004368176002683B404A4080214901164085
:10199000421816602E4A049E8218136031002200FD
:1019A0000CF03EFA4A46029BB4461B8864449A40B7
:1019B0001300424653616B461B795BB2002B9FDAE2
:1019C000013D9620EDB200F0B7FF002D9CD1F02232
:1019D000204B1A80204B50321A8009B0F0BCBB4615
:1019E000B246A946A046F0BD06AB9C460726144B5E
:1019F000664403931B8834709C400222114B1349A8
:101A0000186805964118AC619B4643680A600168F6
:101A10001340C532514008320A4080214901411823
:101A20000A600B4A31008218136001220CF0F8F9A9
:101A3000962000F081FF55E74E0200204A02002068
:101A40004C0200205002002039E800100430000051
:101A5000042000008A11002088110020F0B54546BE
:101A6000DE4657464E460723E0B585B06B449846A0
:101A700003231840022867D0032860D0012868D0CB
:101A8000A022F02145335200344CD025207040462E
:101A900001240370324B2D061980324B02271A8025
:101AA0002200314B314900931B88C7269A403623C8
:101AB000AA616A46D3732E4AB14613889346220020
:101AC0009A40AA612B4A10689246431880214268C6
:101AD0001F600368490173400836334041180B60AA
:101AE0000F21254B3A40C3181A60694401220CF0BB
:101AF00097F958460388200098406861504600686E
:101B00001A494368421817603B4080214F460268DB
:101B100049017A40164042181660174A4146821819
:101B2000136001220CF07CF9009B1B889C406C61C7
:101B300005B0F0BCBB46B246A946A046F0BDA02108
:101B4000E823F02249009FE7A0228823F0215200D9
:101B50009AE7A0212823F022490095E79F11002051
:101B60008A110020881100204E020020043000005D
:101B70004C0200205002002004200000F0B5DE4698
:101B800057464E464546E0B501250C0029009846CB
:101B90006A4B87B001931B88D02699403606B16105
:101BA00041462A23611801392404214309BA0591C9
:101BB00002A9CB71624907008A460B882900994027
:101BC00080183F0401383843022400BA0490009280
:101BD000B1615C495C4B08688946C721C3184268FB
:101BE0001C6003688B464B408021CF2749013B4056
:101BF00041180B60554B2240C31802A91A600731E7
:101C000001220CF00DF950460388280098407061BD
:101C10004846594600684C4B4268C3181C6003682C
:101C200022404B40802149013B4041180B60474B0B
:101C300004A9C3181A6004220CF0F2F82B2302A89E
:101C4000C3715046038828009840B0614846594601
:101C500000683D4B4268C3181C60036822404B403B
:101C6000802149013B4041180B60384B02A9C31841
:101C70001A60073101220CF0D3F85046038828007F
:101C8000984070614846594600682F4B4268C31817
:101C90001C60036822404B40802149013B404118B1
:101CA0000B602A4B05A9C3181A6004220CF0B8F87F
:101CB0002C2302A8C3715046038828009840B061C5
:101CC000484659460068204B4268C3181C600368A8
:101CD00022404B40802149013B4041180B601B4B87
:101CE00002A9C3181A60073101220CF099F8504676
:101CF0000388280098407061484680210068124A95
:101D000043688218146002684901974342184146AB
:101D100017600E4A234082181360009A4A431099B4
:101D20000CF08EF8019B1B889D40756107B0F0BCDC
:101D3000BB46B246A946A046F0BDC0464E020020B2
:101D40004C0200205002002004300000042000005B
:101D5000F0B5DE4657464E4645460623E0B501251A
:101D600087B06B441A802A009B46664BD0260093AE
:101D70001B8800049A40030C18430B043606190C08
:101D8000B26119436A462A23D3735F4A02249146FB
:101D900013882A009A4009BA0591C72100BA049015
:101DA000B2615A4A5A4B10689046C31842681C6088
:101DB00003688A464B408021CF2749013B404118A8
:101DC0000B600F21534B2240C3181A606944012253
:101DD0000CF026F84A4613882A009A40726142465F
:101DE000514610684A4B4268C3181C600368224081
:101DF0004B40802149013B4041180B60454B04A9F1
:101E0000C3181A6004220CF00BF86A462B23D37314
:101E10004A4613882A009A40B261424651461068E9
:101E20003B4B4268C3181C60036822404B40802132
:101E300049013B4041180B600F21364B6944C318E0
:101E40001A6001220BF0ECFF4A4613882A009A40E0
:101E500072614246514610682D4B4268C3181C609F
:101E6000036822404B40802149013B4041180B60F0
:101E7000284B05A9C3181A6004220BF0D1FF6A464B
:101E80002C23D3734A4613882A009A40B2614246F3
:101E9000514610681E4B4268C3181C6003682240FC
:101EA0004B40802149013B4041180B600F21194BE9
:101EB0006944C3181A6001220BF0B2FF4846038838
:101EC000280098407061404680210068104A4368AD
:101ED00082181460026849019743421817600D4A3E
:101EE000234082181360594601220BF0A9FF009B82
:101EF0001B889D40756107B0F0BCBB46B246A94641
:101F0000A046F0BD4E0200204C02002050020020EE
:101F10000430000004200000094A83009A1810B51C
:101F200014684022544080322240064CC000A4462F
:101F300063441A60044B9C466044416010BDC04637
:101F400004C0014004D0014000400140074B800024
:101F5000C3181B68C90092000A435A400C2313405F
:101F6000034A9446604403607047C04604C0014081
:101F700004D001408000002905D0064B9C46402338
:101F8000604403607047044B9C46402360440360F8
:101F9000F8E7C04604E0014004F001400123D022EC
:101FA0008340120693629361094A83009A1811686C
:101FB0004022514080320A400649C0008C466344AA
:101FC0001A60054B9C460523604443607047C04639
:101FD00004C0014004D00140004001400FB400B5EE
:101FE000084883B003F0A6FE049B002B07D005A988
:101FF0001800019103F0BCFC034803F09BFE012094
:1020000003F0CEFCA0E000105CDF001070B5EFF331
:10201000108C72B60D4D2B68002BFCD0BFF35F8F78
:102020000724CB08C618C05C01230C40A3401C0049
:102030000440034207D118433070BFF35F8F2C6018
:102040008CF3108870BD1000FFF7C8FF2C0100D082
:10205000044A1078431CDBB2172B00D910231370ED
:102060007047C046540200200021044B044ABFF3CD
:102070005F8F02C39342FAD17047C046000100D07F
:10208000800100D0054B064A1360064A1360536076
:102090009360D36013615361936170478080808047
:1020A00000E400E004E400E01F2318401E3B8340EE
:1020B000002905D0C021044A4900535013607047DD
:1020C000802201498B50FAE700E100E070B50D0075
:1020D000EFF3108672B60F4A1368002BFCD0BFF3E3
:1020E0005F8F0D4B10309B6884001B590B4A934245
:1020F00003D09D4201D000F0A9FF074B9B681D5102
:10210000BFF35F8FBFF35F8F0022024B1A6086F32D
:10211000108870BD240100D000ED00E0CD0100105A
:10212000F0B5DE4657464E464546E0B50C0083B056
:10213000EFF3108872B6634A1368002BFCD0BFF32C
:102140005F8F614B61499A68030010339F00D55936
:1021500001938D4243D0A54254D05D4EAA1B2F2A35
:102160003DD85C4B9B461B68994601231A009C4650
:1021700082404B4613401F229946634602409340DB
:102180009A4680225B4650469850BFF35F8FEFF32C
:1021900005839B46002B37D0019B5B4501D000F0A7
:1021A00055FF01232A009A439068844208D176E0C3
:1021B0004B005B189B00F3189868844236D01A00D5
:1021C000062151560029F3DA844254D04B46002BA5
:1021D00027D0C02251463F4B5200995019603A4BCC
:1021E0009B68DD51BFF35F8FBFF35F8F0022354BDC
:1021F0001A6088F3108803B0F0BCBB46B246A9460B
:10220000A046F0BD0D00EAE72A0063469A439068B5
:102210008442D5D106201056130000280ADA0D009A
:1022200031E0802351462B4AD150D8E7062018567A
:10223000002821DB42001118890074188B46A16820
:102240009960E179D971062161569971002924DBE1
:10225000A488F11A640524155C44091909051E4C6B
:10226000490D2143998013181C4A9B001178F318DB
:1022700099711070AAE713005946002914D1FF3153
:1022800091711749918015490A789A71154A9B1BDB
:102290005B415A43120D0A7098E71149E2E70620A4
:1022A000105613000028C5DA0F4A1049D21A083A0E
:1022B0005002400D014399800D4952080A43DA80CB
:1022C00084E7C046240100D000ED00E0CD010010FD
:1022D0005802002000E100E000E0FFFF9E11002016
:1022E00001BDFFFFAAAA00009202002000F0FFFF3C
:1022F00000F8FFFF70B501240443EFF30581EFF30D
:10230000108C72B6214A1368002BFCD0BFF35F8F8C
:102310001F4B05001F4AED1A6D416A43120D1E4DF9
:102320008900AE6852B27658A6421CD00621595692
:1023300091421CD012215956914222D01E21595649
:10234000914220D02A2159560324914210D0134B98
:1023500019781A708171BFF35F8F00220B4B1A60DE
:102360008CF3108870BDAB680D4C5C50EFE7002417
:102370006100091989005B18FF2199710949998049
:10238000E5E70124F4E70224F2E7C046240100D087
:1023900058020020AAAA000000ED00E09E110020D3
:1023A000CD01001001BDFFFF024B9C466144890036
:1023B000016070474000003470B5114C114DAC42C3
:1023C0000FD2FF262368002B0CD0FFF741FE01003F
:1023D0002000FFF7E9FFA680BFF35F8F0834AC420F
:1023E000F0D370BDFFF734FE01002000FFF7DCFFE3
:1023F0002671BFF35F8F0834AC42E3D3F1E7C046E8
:10240000C4090020CC0900200A4B1968EFF31080A2
:1024100072B60A68002AFCD0BFF35F8F1B68BFF357
:102420005F8F00221A6080F3108840BF00200021D7
:102430007047C04674110020F0B5DE4657464E4640
:102440004546E0B587B0EFF30583032201251A4026
:10245000954091008846A946B34B03925C58B34B14
:102460001D60B34B04934B46B24843630823E55EBB
:10247000002D37DAA3881BB2002B00DBADE0A37977
:10248000002B00D0EEE00823E05E002820DB4300B4
:1024900062691B18DB00D3189E68DD68731C00D1CD
:1024A00011E1A44801004144826A0B69B71A9B1AE2
:1024B0009F4215D30123026A039883401A420FD02A
:1024C0009C4800F047FB8D4202DCCCD18642CAD941
:1024D00040BF07B0F0BCBB46B246A946A046F0BD1F
:1024E0000E61EDE762696B0092465B19DB009A446E
:1024F00053469E68DF6800F02DFB8F42BADC00D1A6
:1025000003E1002F00DAE8E05246534652691B69A6
:102510009346049A934200D1D9E052460821605E66
:102520005288000459461043984700900191009941
:10253000019A0B001000134300D1CEE013000A00F3
:10254000B61A9F41002806DB7A4800F003FB009E84
:10255000019F36184F4153469E60DF6000229A5E0D
:10256000002A00DA86E7530099186069C90041180B
:1025700002938B68C9689B46B94200DD7AE702D1B5
:10258000B34200D976E708239C46A44405956546E6
:102590002281A446029B2C0006E053009918C90032
:1025A00041188D68C968AB469B18DB00C318B94257
:1025B00006DC00D1B3E01C000023E25E002AECDA66
:1025C000230064469C4653461A806346059D1D8041
:1025D000A3881BB2002B00DA51E72269EFF31081C8
:1025E00072B61368002BFCD0BFF35F8F0123A7885E
:1025F0005B42A3803FB22369BFF35F8F00221A6062
:1026000081F31088002F00DA39E723000833220015
:102610009A4666697B00DB19DB00F318996850461F
:102620008C460824115FDD68002910DB029306E068
:10263000AB4244D00023E15E2000002906DB4C00C1
:102640006418E4003419E368AB42F1DD029B0780B3
:1026500000201F5E1980002FDCDA1400A379002B04
:1026600000D110E70023A37126000823E15E08369D
:102670004B1C00D12CE70800A246656902E03E0031
:102680004B1C1AD04B005B18DB00EF180A008C467D
:10269000E95E7B881BB2002BF1DA01235B42DC1779
:1026A000BB60FC60824205D0534631801B893B8071
:1026B00053461A8160464B1CE4D15446E5E6A368B4
:1026C0006345B7D9C2E76B1C00D0EAE6F8E65B4683
:1026D00058461B69984700281BD153461B8822691E
:1026E0002381EFF3108372B611680029FCD0BFF389
:1026F0005F8F514662880A8022696580BFF35F8FD1
:102700000021116083F31088B4E6864200D8F8E611
:10271000B0E65B461A685B680092019307E7B34531
:1027200000D848E74CE7C046F81000203C70054050
:10273000392400100040054070B52E4C2569002D4D
:1027400004D00A212C48FFF72FFE70BD2B4E032129
:10275000300000F0F5F9E660FFF77AFC284B032221
:102760009C46D02322701B061B6801216370254BF9
:102770006044A3600F2380002061022063806369AE
:102780004942A18019800231198647311D83585270
:1027900018315A5275325C399952183201319952B6
:1027A00018320131995218320131995208351832D4
:1027B0009D52023118329952183201319952183211
:1027C000013199521832013199521832013199521E
:1027D0001832013199520C4B0C49DC6001303562E2
:1027E000FFF774FC01210320FFF75EFC084B1D601E
:1027F000A7E7C046A0020020741100200040054059
:1028000040000034FFFF1000F810002039240010B1
:102810003860054070B501000469EFF3108C72B6A2
:1028200020680028FCD0BFF35F8F02200D5E4C694A
:1028300068004019C00024180869002D36DB26887E
:102840004E80BFF35F8F002606608CF31088E36034
:1028500063880498013320615B0405985B0CA260D7
:1028600060611A1C002B1FD093B2280462801843A9
:102870000A69EFF3108C72B61368002BFCD0BFF31B
:102880005F8F8B8823808D800B69BFF35F8F002261
:102890001A608CF310880B7801329A40CB68084993
:1028A0008C4663441A6070BD0122DDE7BFF35F8F81
:1028B000002303608CF3108801204042F3E7C046F8
:1028C0003C20000010B543890A1493421ADD5300DE
:1028D0009B184269DB00D3180469EFF3108C72B6C1
:1028E0002268002AFCD0BFF35F8F5A88090494B293
:1028F000090C8A4208D00369BFF35F8F00221A6077
:102900008CF31088002010BD8022120214435C80DA
:10291000012302698371BFF35F8F002111608CF383
:102920001088044902788C469340C26801206244B2
:102930001360E8E73C200000F0B5C64600B582B061
:10294000040000F00FF9FA2206000F002000002317
:102950000021920001F0ACFA8019794104000D1EAB
:1029600002DA01242E4D644206267642F717361904
:102970006F41AF4214D811D000F0F4F832003B00A0
:10298000121A8B41002B15DC002B46D020002900A9
:1029900000F026F902B080BCB846F0BDA642EBD9E3
:1029A0000026002700F0DEF832003B00121A8B41AF
:1029B000002BE9DD00F0D6F832003B00121A8B4103
:1029C000002B0ADB00230193164B320000931648BC
:1029D0003B00FFF71FFF0130D8D000233900B0467D
:1029E0009C46124A1248536A994204D8966A464550
:1029F000CCD29942CAD10668EFF3108772B6336819
:102A0000002BFCD0BFF35F8F0368BFF35F8F664678
:102A10001E6087F3108820BFE5E7002AB6D0C9E71B
:102A2000FFFFFF7F09240010A002002000400540A6
:102A300074110020F0B557464E46DE464546E0B5D7
:102A400006000F0085B0EFF3058399468B46002BF7
:102A500012D0384900204B6ABB4206D38A6ADB1B7E
:102A6000591E8B41B2424041184305B0F0BCBB46F1
:102A7000B246A946A046F0BD2F4B9A46DB68984661
:102A800053461B784046039300F064F84246039B8C
:102A9000040004339B009B580D001B1A39003000C2
:102AA000001BA941894510DC0DD020BF214A002020
:102AB000536A5B45D9D3926ADB1B591E8B41B242E4
:102AC00040411843D1E78342EFD900F04BF8320080
:102AD0003B00121A8B41002B1ADB00230193174B8A
:102AE0003200009350463B00FFF794FE011E0FDDBD
:102AF000104B5A6A5A451BD39B6AB34216D35046B1
:102B0000FFF7E0FE0B4A0020536A5B45ADD3D2E7E6
:102B1000084A0020536A5B45A7D30020926ADB1B5A
:102B2000B24240415A1E934118439EE75A45E6D1AE
:102B300020BFE4E700400540A00200200924001067
:102B400010B5024A0248FFF761FA10BDB0E000106C
:102B5000801000200300416A0A00986A596A8A427C
:102B6000FAD17047034B596A0A00986A596A914230
:102B7000FAD170470040054070B504000D00174AB7
:102B8000536A1900966A536A8B42FAD130001900D1
:102B900024184D41AB4216D813D0104B2A005B6A63
:102BA0009D4203D90D494B6A9342FCD3934207D10E
:102BB0000A4A02E0516A994202D1916AA142F9D3CC
:102BC00070BDA642E9D9054B5B6A1C005A1CEFD0C8
:102BD000012201246442E5175242E3E70040054028
:102BE000064A536A9942FCD807D1044B02E05A6A5C
:102BF000914202D19A6A9042F9D87047004005404C
:102C0000F8B5040006200D0000F078F9002844D043
:102C1000374B3849E3185A1E9341802212049446D8
:102C20005B429B0D344A9B0563441360334A136037
:102C300018000A689043FBD12D4B314AE3185942E2
:102C40004B4180215B0049000620995200F056F963
:102C50002900C00000F000FB0130C3091ED140274D
:102C600001226262A362266BF30722D4E36A254B3A
:102C70000620E51800232B60266300F03FF9390099
:102C8000800000F0E9FA7023E26A5A400E331340E4
:102C90002B601D4B23630323A364F8BD1B4A93429F
:102CA0001ED900231A4A1B4F6262A362266BF307E8
:102CB000DCD5194B144AE3181A60656AA36A06202A
:102CC000AD01ED1800F01AF9144900F0C5FAAD0293
:102CD0000100280000F0C0FA0021FFF74DFFC5E712
:102CE0004006800E9F011A003F180300B9E7C04656
:102CF0000080FCBF08C0004000E0004000F0004041
:102D0000801100202C10000001030000FEFF0000D5
:102D1000FFFF0000C0FF3F00303000004E0E0000FB
:102D2000F8B5DE464E4657464546E0B58B460500AB
:102D30000A991800160000F08FFA0A9B6C001F0217
:102D4000324B64199C46A4006444636881469F42E8
:102D500000D967602B1FDBB29846012B30D9C02306
:102D600080229B01E31812011A60294BAD005959CA
:102D70009A4600291BD17301E026226853401E4069
:102D8000802342465B01E3181E60012A30D980236C
:102D900080229B01E31812011A6053464A4667607D
:102DA0005A51F0BCBB46B246A946A046F8BD586988
:102DB00000F052FA013043001B18033BFDD2DAE762
:102DC0005B46012BCBD1C02303229B01E3181A6081
:102DD000023AA3681A42FCD07301E0262268AD00D3
:102DE00053401E4080230A4A5B019246E3181E604E
:102DF0005A462168514003220A401A6001225B466C
:102E00009A40A3681A42FCD0C1E7C0460080004047
:102E100084100020F0B546464F46D646C0B51F0088
:102E2000344B44009C462418A400644463688846DC
:102E30001600FF2B02D880235B006360031FDBB208
:102E40009A46012B30D9C02380229B01E31812013E
:102E50001A60294B85005959994600291BD17301E5
:102E6000E026226853401E40802352465B01E3184F
:102E70001E60012A30D9802380229B01E3181201B1
:102E80001A6080235B0063604B465F51E0BCBA462A
:102E9000B146A846F0BD586900F0DEF901304300A4
:102EA0001B18033BFDD2DAE74346012BCBD1C023ED
:102EB00003229B01E3181A60023AA3681A42FCD06D
:102EC0007301E0262268850053401E4080230A4A91
:102ED0005B019146E3181E6042462168514003227F
:102EE0000A401A60012342469340A2681342FCD074
:102EF000C1E7C0460080004084100020014B8000E4
:102F0000C058704784100020F8B5040021481E0006
:102F100017000D0000F0A0F90100380000F09CF946
:102F2000069B36041B031E432368002B20DB1A4B31
:102F30001A49E3185A1E93418022920194465B423B
:102F40001B0B174A1B0363441360164A13601F00D0
:102F50000A689743FBD1144B2560E2182123A06037
:102F600013602368002BFCDA0823E6601360F8BDC9
:102F70003F2322681340AB42D9D1A3681B051B0D28
:102F80008342D4D1EE22E368D2021340B342CED1C1
:102F9000EDE7C046001BB7000040FDBF08C0004081
:102FA00000E0004000F00040043000008023024AAE
:102FB0009B000B43D362704700800540002310B58F
:102FC0000100988A1B8B984710BDC046162310B588
:102FD0000100188802331B88984710BDF8B5474692
:102FE000CE4680B50F1E18D0142399460433040032
:102FF0000025012698464B461888434621681B88C1
:10300000984701C4431E984101350640AF42F2D1B2
:103010003000C0BCB946B046F8BD0126F8E7C0464E
:10302000AA23064A1B0113608D235B00D360044969
:10303000044B19605368002BFCDA704700400240D3
:1030400000B0FA00006002407047C04610B5014869
:10305000FEF7C4FFD4E0001070B5074D074EB5422F
:1030600009D20024013E761BB60808CD98472300FC
:103070000134B342F9D170BD50DE00108CDE001077
:10308000054B064A06491A60064A074B1A601000AB
:103090000B689843FBD1704700E00040BFCDFBFEBA
:1030A00008C00040FE7F3C0000F00040044BDB6C99
:1030B000002B03D18022034BD2021A607047C04616
:1030C000000011504C201150044A054B1A60054A6B
:1030D0001368DB018033FBD17047C046FFFFFF015F
:1030E00000F0004008C000404022034B9A675A6736
:1030F0001A67DA667047C04600F0014010B5FEF767
:10310000B3FF10BD70B5044D044CA968C022200067
:1031100000F0A6FFAC6070BD00ED00E000000020F4
:10312000002310B5294C82B0A367FFF779FF012275
:10313000274B1A60636C012BFCD10322254B1A60CC
:10314000224A936B012BFCD1013300930121224AC7
:1031500022480433FFF7D8FE052301210093204ABB
:103160002048FFF7D1FE0022022104201E4BFFF76A
:1031700051FE0022012105201C4BFFF74BFE0022CF
:10318000002107201A4BFFF745FE002200210820EE
:10319000174BFFF73FFE8023DB0000930022002146
:1031A0000920134BFFF7BCFD0022104B0021062025
:1031B000FFF730FE0420FFF7A1FE0E4900F04CF8A7
:1031C00001000020FFF7F2FE02B010BD00800040B9
:1031D0003CB0004030B00040002F685900800240F1
:1031E000008C864700C00240001BB700405973079F
:1031F000006CDC0240420F0001480421014B1847DB
:10320000C0020020DD2F0010124A936F9B0815D2D8
:103210009066D166002905D0FFE7FFE7FFE7516F11
:10322000106F704704B580210906C217514000286D
:1032300000D0C8430AF0ECFD002104BDF0B5146EC7
:10324000556E576F166FFFF7E3FF146655665767A5
:103250001667F0BD000000D0114A936F9B0813D28F
:1032600010665166002905D0FFE7FFE7FFE7516FC1
:10327000106F704704B5002801D00020C0430AF049
:10328000C7FD002104BDC046F0B5146E556E576FE2
:10329000166FFFF7E5FF1466556657671667F0BDB2
:1032A000000000D094464A4A926F9208624601D2CA
:1032B00028E0C046F0B5464E346E756E776F366FB7
:1032C00000F020F89446424A146655665767166720
:1032D0006246F0BD94463E4A926F9208624601D221
:1032E00054E0C046F0B53A4E346E756E776F366F67
:1032F00000F04CF89446364A1466556657671667D0
:103300006246F0BD002B24DB11D000293EDA00B567
:10331000C943404200D1013100F038F8C94340426E
:1033200000D10131DB43524200D1013300BD002AFC
:10333000EBD1002801D1002905D00020C90FC90711
:1033400001D1C043410800B50AF05AFD0022002314
:1033500000BD00B500290ADBDB43524200D1013336
:1033600000F014F8C943404200D1013100BDC94307
:10337000404200D10131DB43524200D1013300F021
:1033800005F8DB43524200D1013300BD002923D1AF
:10339000002B18D1002A0CD0BC460D4F38667A6637
:1033A00000210023FFE7FFE7FFE77A6F386F6746EA
:1033B0007047002801D00748010000B50AF020FD41
:1033C0000022002300BD02000B00002000217047F6
:1033D000000000D0FFFFFFFF002B00D0BFE0130C68
:1033E00028D1002AE7D080B4114F39667A66FFE70A
:1033F000FFE730B4040C7B6F396F1B0423433B663B
:103400007A66FFE7FFE7FFE7C04684B27B6F3D6F58
:103410001B0423433B667A66FFE7FFE7C0460023B1
:103420002C042D0C7A6F386F00196941B0BC7047BD
:10343000000000D0F0B594460025140E01D1120210
:103440000835140F01D112010435940F01D19200F7
:103450000235D40F01D152000135D40B0134254F70
:103460007C66254C3C660E0C93B2FFE7FFE7FFE756
:103470003C6F6643360C7703BE467343DF0B5B0439
:10348000C01AB941130C7343DB18C91ACE0866433E
:10349000360CB64493B273431F0F1B01C01AB941D7
:1034A000130C73431F0B1B05C01AB941860D8F0205
:1034B0003E436643360C092D24DB520A7243801AC0
:1034C0007703460A6643360C16235B1BDE40DF405B
:1034D000BF1964466643821B7046043506330100FB
:1034E000D940A840C01900D30131A24206D200231E
:1034F000F0BD0000000000D0FFFFFFFF121B0130F5
:10350000F3D3F1E709277F1BFE406446A2B2724362
:10351000801A00D20139220C7243130C1204821A51
:1035200099410B007046043513370100F940A8405B
:10353000801900D30131002B02D1A2420AD2F0BD82
:10354000013000D30131121BFAD2013BF8D1A24263
:1035500000D2F0BD013000D30131121BF7E7F0B506
:103560001C0C00D080E00CB400251C0A04D11B0206
:10357000160E3343120208351C0B04D11B01160F23
:103580003343120104359C0B04D19B00960F334347
:1035900092000235DC0B02D192185B4101351C0010
:1035A000971864410134464F7C66464C3C660E0CCD
:1035B000FFE7FFE7FFE7C0463C6F6643360C770343
:1035C000BE4697B27743C01B00D20139C01B00D260
:1035D00001399FB27743C91BC91B170C77437E047F
:1035E000FF0B801BB941CE086643360C0C2D33DB34
:1035F000B644120B1F053A431B0B97B27743C01B0F
:1036000000D201399FB27743C91B170C77433E04A0
:103610003F0C801BB941860D8F023E43664329272C
:103620007F1BFE400C3D7746AF40BF1930BCA2B2B5
:10363000ABB272437343801A9941220C7243130C4C
:103640001204801A994102000B000137001BA941A6
:10365000F9D2781E0021F0BD0C277F1BFE40774673
:103660007F0BAF40FF19E0E700245D1C07D0144F2B
:103670007D663966FFE7FFE7FFE7FFE73C6F95B23E
:103680009EB265436643401BB141150C1E0C654359
:10369000664336042F0C3E432D04401BB141994232
:1036A00004D202000B0020000021F0BD01D19042A5
:1036B000F7D3801A994101349942F2D3F6E700001A
:1036C000000000D0FFFFFFFF48404140484018B4D1
:1036D0001B4B5B68FC46019308BD04DF8339001077
:1036E00018B4174B1B68FC46019308BD00DF8D39E9
:1036F00000109446134A926F920809D2624618B499
:103700000F4BDB68FC46019308BD0CDF453C001005
:103710000C4AF0B5146E556E576F166F6246FFF780
:10372000EEFF084A1466556657671667F0BD18B471
:10373000034B9B68FC46019308BD08DFE93A001083
:10374000A00B0020000000D0FFB550404240504088
:1037500059404B40594000E0FFB5154F4C00640DF7
:1037600003D0BC4204D10C0314D80020090D090574
:103770005C00640D03D0BC4204D11C030AD80022B3
:103780001B0D1B0501264B4009D44B4003D58B4232
:1037900000D18242FFBD9942FCD19042FFBD0B4354
:1037A000DB1803431343F5D0C9434918FFBD00009C
:1037B000FF07000000B5FFF7CFFF01D0002000BDDC
:1037C000012000BD00B5FFF7C7FF804100BDC04626
:1037D00000B5FFF7C1FF01D9002000BD012000BDE9
:1037E00000B5FFF7B1FF01D9002000BD012000BDE9
:1037F00000B5FFF7A9FF804100BD012040054A0048
:10380000121804D85A00121801D80020704701205D
:10381000704700000021002805D17047C1174840BB
:10382000401AFAD0C90713B5064B1B6898470CBC61
:10383000441CA2401005120B0349091B090519433A
:10384000114310BD701100201F04000010B54C0082
:10385000620D8023D218DB00D21A5B057E2A10DDB0
:103860009E3A13DACC170903490819435242D14052
:10387000640001341532202A05DAD0400843604341
:1038800010BD002010BD0846604310BDC80FC01811
:10389000013810BD18B4044B5B6AFC46019308BDA7
:1038A00024DFF53D00100000A00B0020132370B5AD
:1038B0001D78012D19D014DD1F48FFF787FB060086
:1038C0001E48FFF783FB1E4C80223100200000F0D1
:1038D000C7FB022D2DD01B48FFF770FB1A4B186059
:1038E00070BD1A4B164CA364F5E7184B144C2360BB
:1038F0006360A360E36023616361A361E3612362AA
:103900006362A362E36223636363A363E363236489
:103910006364A364E36423656365A365E365236669
:103920006366A366E36623676367A367E367A364CD
:10393000D1E7064BA364CEE7534400005346000092
:10394000A00B00204C3300007011002051390010F2
:1039500007B5604601880A0A0230DF2AFAD1C9B2E7
:10396000820804D3028840880004104300E0006805
:10397000014A5050039007BDA00B00200FB403BCB8
:103980000CBCF0B50124E407634000E0F0B50C0D79
:10399000CF0F661E3605891B640503D3C943404219
:1039A00000D30131640D03D0661CF60A07D0E41B76
:1039B00000207F00791C89078912803C24031D0D9B
:1039C000DF0F6E1E36059B1B6D0503D3DB43524292
:1039D00000D301336D0D03D06E1CF60A07D0ED1B2A
:1039E00000227F007B1C9B079B12803D2D032F1B19
:1039F000661B58D4A446202E46DA20371400BC405B
:103A00001D00BD40F24033412A4380185941CB0F7D
:103A100005D0C943C043002264425041514162462F
:103A20004D0D28D10D0D07D100281FD0241940417C
:103A30004941013A0D0DF9D0640006D3013000D39D
:103A40000131002C01D140084000013A0BD4941CF4
:103A5000E40A04D112051144DB071944F0BDD9076B
:103A6000204B194300E0D9070020F0BD0029DDD12B
:103A7000002CDBD1F0BD0132C6074008CD0728433A
:103A80004908002EE1D0D9E73C2E29DA203E403704
:103A90001400BC4000D00124F24014431A00BB4083
:103AA0001C43D317ACE7AC46202F08DA20360400BD
:103AB000B4400D00B540F84039412843A5E73C2FFC
:103AC0000CDA203F40360400B44000D00124F84016
:103AD00004430800B1400C43C117EAE71000190085
:103AE000002494E70000F07FF0B50C0D661E36054B
:103AF000891BE60A6405640D02D0651CED0A04D03A
:103B0000002001210905803C2403A4461C0D671EEA
:103B10003F05DB1BE70A6405640D02D0651CED0A56
:103B200004D0002201231B05803C24037740644419
:103B300097B484B296B27443070C7E43150C6F435E
:103B400080B26843361802D3012000043F183004C5
:103B5000350C00197D41844688B29AB250430C0C52
:103B600062431F0C7C438EB27E43921902D301261E
:103B70003604A4191604170C3618674101BC81B22B
:103B80009AB25143040C62431B0C5C4380B258430D
:103B9000121802D30120000424181004130C40183A
:103BA00063412D185E410020474106BC88B293B2A4
:103BB00058430C0C6343120C544389B251435B18B5
:103BC00002D301210904641819041A0C091862416E
:103BD0006D1856410020474118BCF902720D11437F
:103BE000F0026A0D1043ED020A0D03D16D19404138
:103BF0004941013B124E9B1B7600B3420ED26D0031
:103C000007D30130002671416646354301D1400893
:103C100040001B05C918E4072144F0BD0BDA01334D
:103C200006D1013004D101314F0D01D04908F2E72E
:103C3000E1070020F0BD013631050020EBE7000070
:103C4000FF030000F0B51C0D671E3F05DB1BE70AF4
:103C50006405640D02D0661CF60A04D0002201231C
:103C60001B05803C2403D0252D060026F6432E6636
:103C70001E096E66CE0FF619B44649004F0D02D0EC
:103C80007E1CF60A03D000200021403F3F033E1B6C
:103C9000B600B444013F7F05C91B49082E6F0136A9
:103CA00076089C02950D25437543ED137543AD13BE
:103CB00001356D10F603761B0CB4CC02450D2C4378
:103CC000A2B2B3B25A43270C7B43350C6F43A4B264
:103CD0006C431B1902D3012424043F191C041D0C3E
:103CE000A4187D4124196D41009A91B2ACB2614390
:103CF000170C7C432B0C5F4392B25A43A41802D397
:103D000001221204BF182204230C52187B41019C8B
:103D10006C431B19520ED9010A434401A01A81B207
:103D2000B2B2514303145A43360C734387B27743FC
:103D3000D617D21900277E4136049B191704160C9A
:103D40007F185E417316ED18F3010026803375412C
:103D5000A90F06D16400690AE8055B0A184309D275
:103D60002FE00422944480337541A90AA8059B0AD8
:103D7000184326D3404149412404009A019B0D0079
:103D80005543641B4343E41A95B286B27543170C3E
:103D90007E43030C5F4392B25A43B61802D301220A
:103DA0001204BF183204330C52197B4152429C4119
:103DB000002C02D40022013051414008CA071043B0
:103DC000490802B06246D7079210084BD218084B38
:103DD0009A4203D212058918C919F0BD0020002AA1
:103DE00001DC3900F0BD01331905F5E7FD030000E2
:103DF000FE070000002200B5203200F004F80800A1
:103E000000BD000000220B150AD410B5944600F046
:103E100031F81414013400DA0021CB17144C204778
:103E20000020002170476244343A0CD40C2A07DA8F
:103E300004009140904052422032D440214310BDB2
:103E4000D843D94310BD203207D40C469440524287
:103E500020321141D040204310BD0800C917203244
:103E600003D452422032104110BD1800190010BD79
:103E7000273E00100A0DCC0F531E1B05C91A520510
:103E800003D3C943404200D30131520D03D0531C28
:103E9000DB0A07D0121B00206400611C890789120D
:103EA000803A1203014BD21A70470000FF03000052
:103EB00051434343C9188C46110C83B24B4310B491
:103EC000040C614392B280B2504362431C041B0C49
:103ED000001910BC59411304120CC018514161441F
:103EE000704700004840414048400E4B5B6818470F
:103EF0000C4B1B6818470C4A936F9B0802D2094B66
:103F0000DB681847F0B5146E556E576F166FFFF7E4
:103F1000F6FF054A1466556657671667F0BD014BF4
:103F20009B681847A00C0020000000D0491A002808
:103F300008D1084670470000C10FC90700D54042AC
:103F4000002817D0F44603B40B4B1B68984706BCF7
:103F500081409E384042803107D20B0607D049008D
:103F6000490AC0051043084360470130F8E7490A91
:103F70008902F5E77047000070110020014B5B6A71
:103F800018470000A00C0020132310B512481C781D
:103F9000FFF71CF80100012C0AD003DD80220F4836
:103FA00000F05EF80E48FFF709F80E4B186010BDE0
:103FB0000A4C5422200000F053F80B4B6365A365B4
:103FC000E36523666366A366E36623676367A367A7
:103FD000E3672362E361E5E753460000A00C00209D
:103FE0004C33000070110020ED3F001007B5604613
:103FF00001880A0A0230DF2AFAD1C9B2820804D342
:10400000028840880004104300E00068014A5050D4
:10401000039007BDA00C002010B5040004F084FE3E
:10402000002804D0034B04199C4200D810BD02485C
:10403000FDF7D4FF00000420E0E0001010B504F00C
:104040007DFE10BD01480421014B1847D00200201D
:10405000DD2F0010014B1B6818470000D002002024
:10406000014B5B6818470000D00200207047C04633
:10407000F8B55746DE464E464546E0B599460A9B9A
:1040800007009A460D9B884693460B9C9B073BD1A5
:104090000C9B9C423DD21E1B0B9415000C005E44F1
:1040A0002A004B46013521002020B847B542F7D100
:1040B000A0460B9C002C20D0454636195346321B97
:1040C000013C185D29004B46B847002CF6D12B0067
:1040D000350098460D9B9B070FD55B46EC1A0C9B51
:1040E000A3420AD9464698462A004B463100202072
:1040F0000134B84701354445F6D32800F0BCBB462F
:10410000B246A946A046F8BD16001500002CD3D132
:10411000E0E716001500002CCED1EEE7F0B54546DD
:10412000DE4657464E46E0B585B09C4610AB1B7840
:10413000149F934698460F9C129E139DBB074CD428
:10414000002D42D1B44248D201233B4099460E9BF8
:10415000013B9A46302304E0524601341355A642EF
:1041600001D9202CF8D14B46002B00D183E00E9BC7
:10417000013B99463023A54205D82EE04A4601343A
:104180001355AC4229D0202CF8D1FB060CD57B0569
:1041900054D4A64263D0A54261D0119B102B50D0BD
:1041A000022B57D0202C32D1202301930E9B5A464C
:1041B0000093039763460295FFF75AFF05B0F0BCE2
:1041C000BB46B246A946A046F0BD01233B409946F6
:1041D00001233B422AD1B442B9D3FB061CD57B054F
:1041E000DBD4002CD5D1119B102B5BD0119B022B63
:1041F0006BD0302301240E9A13704346002B10D14C
:104200007B073ED52B260E9A631C1655CDE723005F
:10421000013430260E9AD654202CC5D04346002BAC
:10422000EED02D260E9A631C1655BEE74346002B92
:104230002FD0013DB44200D289E798E7119B102BA3
:10424000B2D1BB0637D5202CAED058230E9A1355C9
:104250000134A7E7202CA7D02300013407E0631E18
:10426000012CC0D0119A102A31D0022AD1D1622655
:104270000E9AD65496E7FB06CED57B0500D488E788
:104280008BE723003E0790D520260E9A0133165562
:104290008BE70C233B405A1E9341ED1AB44200D2E7
:1042A00055E764E7BB060ED478230E9A02241370F8
:1042B00030235370A1E7202C00D175E778230E9AA4
:1042C000135501346EE75823EFE76033EDE70E9A9C
:1042D000A61E91464E44BA0602D55822327098E77F
:1042E0007822327095E7C04610B5002800D110BD85
:1042F00001F0D6FCFBE7C0460B0010B5002802D049
:1043000049681B68984710BDF0B55746DE464E46D3
:104310004546E0B595B083460F00924698461E9AF2
:104320001F9B10001900209EFFF767FA002800D09D
:10433000EAE11E981F990122C54B5242FFF742FA4B
:10434000002800D014E11E981F990122C14B52424F
:10435000FFF74EFA002800D0E9E01E981F990022CE
:10436000BD4BFFF745FA002800D0C8E01E981F9902
:104370000022BA4BFFF726FA002800D0BFE01E98B3
:104380001F9900220023FFF71DFA002800D0E4E067
:1043900000230B93229B5B0500D4062600243023C8
:1043A00007E0172106AA013452181355013E202CAC
:1043B00001D0092EF5D81E981F99FFF747FAA84B90
:1043C000F2009B181A685B68050008920993FFF7D2
:1043D00025FA02000B001E981F99FFF778F9089A3A
:1043E000099BFFF7A4F906900791FFF753FA81465E
:1043F000FFF710FA02000B0006980799FFF767F91C
:104400000022984B06900791FFF7F2F9002800D19F
:104410000DE101239C46E1444846FFF7FBF9020009
:104420000B0008980999FFF7D3F9002802D0002360
:1044300099460135002E00D1D9E006954D46B94682
:1044400014E006AA944617230A2163442800013485
:104450001F19FEF701FF3031397028000A21013E93
:10446000FEF7FAFE092D00D817E10500202CE8D14F
:104470004F46069D20240CAE06AA1723944663449B
:1044800099465B46B34606930FE04B4628000A2147
:104490000134E618FEF7B8FE3031280031700A21E9
:1044A000FEF7B2FE051E00D1E4E0202CEDD1069B04
:1044B0005E469B460323229A1340012B18D1219B71
:1044C000002B15D00B9B002B00D1FDE0219B013B65
:1044D0002193202B0CD93023219A07E0172006A91D
:1044E000013409180B55944200D3CCE0202CF5D1AF
:1044F000229B01940393219B0096029322E0229B2E
:1045000052460493219B3900039358461E9B1F9CDF
:10451000029600930194434600F04AF904002000FB
:1045200015B0F0BCBB46B246A946A046F0BD229BE2
:104530005B070FD403224C4B2299019203912199DE
:10454000009302914346524639005846FFF790FDCA
:104550000400E4E70422454BEEE71E9A1F9B00206F
:104560000021FFF7B4F801231E901F910B9311E770
:10457000229B54469B0711D1219B042B0ED9219BD2
:1045800055469C465E46043C64442A004346013539
:1045900039002020B047A542F7D1B346344D26005C
:1045A0002B1F99465B46A3461C003200E878434621
:1045B0003900013DA04701364D45F6D123005C4648
:1045C0009B46229B04349B07A9D55346219AE31AA4
:1045D0009A42A4D95E4615002200434639002020A5
:1045E000B04753460134E31A9D42F5D897E72800B7
:1045F000FFF714F902000B001E981F99FFF767F8E8
:104600000022184B06900791FFF7DCF80CAE00284B
:1046100000D031E7069807990022124BFFF7E8F81F
:10462000002800D028E7012301359D4324E700221C
:10463000069807990B4BFFF7C5F8002800D0F9E65C
:104640004B46002B5CD101239C46E144F2E6C04678
:10465000FFFFEFFFFFFFEF7F65CDCD4165CDCDC102
:10466000A8EA00100000E03F50E1001048E100100F
:1046700058E10010069B5E469B460323229A134096
:10468000012B00D181E0202C00D131E70B9B002BC6
:1046900027D02D23335501342AE74F46069D202C81
:1046A00000D1E7E63022331907E0172006A90134CC
:1046B00009180A55202C00D1DCE6A342F5D12E22A0
:1046C0000CAE0134F254D7E60C23229A134257D091
:1046D000219B013B2193A34200D9FCE6202C00D171
:1046E00006E7229B5B0703D52B2333550134FFE6F6
:1046F000229B1B0700D4FBE6202333550134F7E649
:10470000DB0700D496E69EE7229B55469B0711D116
:10471000219B032B0ED9219B54469C465E46033DAC
:10472000654422004346013439002020B047AC42A2
:10473000F7D1B346B9465F461C4EEC1C2A00B07850
:10474000434649460135B847013EAC42F6D1229B6B
:10475000BB464F469B0700D4E1E65346219AE31A35
:104760009A4200D8DBE65E46150022004346390037
:104770002020B04753460134E31AAB42F5D3CEE6CE
:10478000219BA34200D9A6E6B2E6219B002B00D1D3
:1047900079E70B9B002B97D0219B013B21939C42F7
:1047A00000D298E6202C00D073E7A1E654E1001077
:1047B000F0B5DE4657464E464546E0B599B08146CF
:1047C0008B4692469846229A239B10001900FFF7C9
:1047D00014F8002800D0CAE0229823990122824BC5
:1047E0005242FFF705F8002800D0C0E02298239934
:1047F00001227E4B5242FEF7E5FF002800D0B6E0D2
:104800002298239900220023FEF7DCFF002800D025
:10481000C9E1229B239C0893099408980999802355
:10482000269ADB001A400D928022269C1201144029
:1048300022000B94269C07000E001C4200D0ADE025
:104840000B00034300D0D5E0002A00D00AE222008A
:1048500006332493022313400C930223134200D007
:1048600002E2259B042B00D20FE2043B0B930023B2
:1048700004250A930022229823990023FEF7A2FF21
:10488000002800D003E25A4B269A134004930B9B56
:104890000393249B0293089B099C0093019459461F
:1048A000434652464846FFF72FFD02002020269B34
:1048B0001F27034059424B415B421840531C089349
:1048C000594643464530C8470A9AD317D4185C4026
:1048D000D30F0A936B1E0B9308AB9C4600256744CD
:1048E00001E0202D0FD020000A21FEF7B5FC013594
:1048F0007E193031317020000A21FEF7ADFC260010
:104900000400092EEDD8052306930B9B5946059309
:10491000002304930A3303930A9B4846029310AB87
:104920000093089A43460195FFF7F8FB0C9B002B78
:104930002DD05346C41A259BA34228D94D465F4625
:1049400081461E00534639001A192020434601347F
:10495000A847A642F6D8534648462599C21A0132BE
:104960000023914200D386E1013018180FE0269B06
:104970000493259B0393249B0293229B239C0093E7
:1049800001944346524659464846FFF7BDFC19B0CC
:10499000F0BCBB46B246A946A046F0BD01432BD1B0
:1049A0000B9B2200002B00D154E700230A93249B89
:1049B0000A9A0024934200DD85E12298239900227F
:1049C0000023FEF7FFFE002800D035E1269B084AB1
:1049D00002941A408023DB0013430493259B039326
:1049E000089B099CCBE7C046FFFFEF7FFFFFEFFF6F
:1049F000FFF7FFFF06232493B44B70009C46400D45
:104A00006044FEF70BFFB24AB24BFEF790FEB24A8B
:104A1000B24BFEF765FE3603B14B360B3343040051
:104A20000D00380019000022AE4BFEF750FEAE4AD2
:104A3000AE4BFEF77CFE02000B0020002900FEF7C3
:104A40004FFEFEF703FF0A90FEF7E8FEA84AA94BC7
:104A500004000D00FEF76BFE0022A74BFEF740FEA0
:104A6000FEF7F4FEA54A0600A54B20002900FEF73C
:104A70005EFE040030000D000C96FEF7CFFEA14A4A
:104A8000A14BFEF754FE02000B0020002900FEF7A8
:104A90001EFE02000B0006000F00FEF748FE32006B
:104AA00004000D003B0030003900FEF719FE002223
:104AB0000E900F91954B20002900FEF71AFE002260
:104AC000934BFEF70DFE02000B0020002900FEF7BD
:104AD00010FE00228F4BFEF703FE02000B002000A9
:104AE0002900FEF706FE0D008021040032003B0085
:104AF0000020C905FEF7EBFD02000B002000290095
:104B0000FEF7EEFD02000B000E980F99FEF7F1FD87
:104B10000022734BFEF7E4FD7F4B0C9C9C466444E3
:104B200000222305FEF703FE06000F0002000B0023
:104B300008980999FEF746FE00280AD00A9B300023
:104B4000013B39000A930022714BFEF7D2FD0600AB
:104B50000F000A9A330063323900C62A12D80222A3
:104B60002698042510400B9A0C90002A25D1259BED
:104B7000042B05D9002800D0A1E0259B043B0B9312
:104B8000042541E00222269810400B9A0C90002A3E
:104B900012D1259B052B76D9002872D1259B05259E
:104BA000053B0B9334E0802212069446229B089327
:104BB000239B6344099330E605250B4300D1F6E6B9
:104BC00008980999554A564BFEF70AFE002808D066
:104BD000089809990022534BFEF7F4FD002800D0F5
:104BE000E5E6249B002B1CD00D9B002B19D0249BA9
:104BF000013B2493259BAB4204D90C9B002B5AD03C
:104C000002230C9300230B930A9B002B00D131E667
:104C10000898099932003B00FEF76BFD0890099156
:104C200028E6259BAB42EDD90C9B002B43D00023FB
:104C30000B9302330C93E7E78020269B3A4A000649
:104C40001A40802384460294089C099D2900DB00B9
:104C500013430493259B6144220003930B000092AD
:104C600001938EE60524A8E600230B930A930233F2
:104C700004250C93FEE553468C46013B63441B1A06
:104C800072E602230C930525C2E70423EDE580209C
:104C9000089E099F000639008446269A224B6144EB
:104CA000134004930B9B32000393249B02930B004D
:104CB00000920193F3E5259B5B1B0B93A4E7022372
:104CC00004250C93A0E79C1A013C76E601FCFFFF4B
:104CD000FB799F501344D33FB3C8608B288AC63FEB
:104CE0000000F03F0000F83F61436F63A787D23FA9
:104CF00071A379094F930A400000E03F1655B5BBF8
:104D0000B16B0240EF39FAFE422EE63F00002C4024
:104D10000000244000001840FF0300002D431CEB5E
:104D2000E2361A3F80842E41FFF7FFFFF0B5DE46E2
:104D300057464E464546E0B5A5B01E002E9B92460E
:104D40000C93CD4ACD4B80468B461A60002900D18A
:104D5000EAE1002330789946002800D1ECE1C84B05
:104D60004C460B93C74B454657460E930AE0631CCF
:104D7000984622003B005946A84744463078002810
:104D800000D187E001362528F1D108239A46043B5B
:104D90009946023B9846013B00229C460D94307890
:104DA000711C0300203BDBB2102B03D80B9C9B0033
:104DB000E3589F460300303B89460D9C092B3AD9A6
:104DC000002398462A2800D1C1E000239A462E28C5
:104DD0004BD00300683BDBB2122B1ED80E999B0010
:104DE000CB589F4663460E001A43D8E743460E0051
:104DF0001A43D4E74B460E001A43D0E710230E00A7
:104E00001A43CCE753460E001A43C8E780235B00E1
:104E10001A43FF3B9C467078E1444E4667284FD8C2
:104E20002428A4D90300253BDBB2422B9FD8964906
:104E30009B00CB589F46002394461E0000E00131A2
:104E4000B3009B195B001E180878303E0300303B0E
:104E5000092BF4D90123624689469C460023B046BB
:104E60009A460E00E1442E28B3D1302180204942D9
:104E70008C46C000024370784B4684446146092941
:104E800000D86CE12A2800D17AE101239C464E46E5
:104E9000E1449EE7A146A846BA46CA4503D8012385
:104EA0005B425344994653464A4659460020C04700
:104EB000200025B0F0BCBB46B246A946A046F0BDD6
:104EC0000300693BDBB20D930F2B00D94FE70121A3
:104ED00099408C466D49894661464B4619400F9171
:104EE000634649460B4200D028E10D9B0A2B3AD07D
:104EF000072B00D03BE70C9B190008C98846002B04
:104F000000D14BE121200243914614A98C461F2277
:104F10000F2162448C4651460D950C91A246150016
:104F20000F9902E020290CD0130064461C40200099
:104F30003730092C00D80738013168541A090F2B73
:104F4000F0D80C9B54460D9D9A460F9133E10C9B73
:104F500002CB8846002947DB0C9301239C467078DE
:104F60004E46E14431E70C9B02CB14935346002B91
:104F700000D138E19C4608780B000C908C44002846
:104F800001D100F098FC89466146944603E05A78C6
:104F90000133002A01D08B42F9D1494662465B1A9F
:104FA0000C900F93530500D520E102231800104008
:104FB0000D90134200D1CBE30D930B1BB1469A46E3
:104FC0005E460C9822003B003100A847534601344E
:104FD000185D0028F6D1B3464E460D9B002B00D03D
:104FE000C7E1149B0C93C9E60C9301239C46283817
:104FF00049420243884670784E46E144E5E67078BF
:105000006C2800D17FE180235B001A43FF3B9C4664
:10501000E14402E780239B001A4301239C467078F9
:10502000E144FAE67078682800D173E180231A43DE
:105030007F3B9C46E144F0E6672800D103E1472826
:1050400000D15AE1452800D15AE104920721424695
:105050000C9B0392073352468B43190002920CC9F2
:105060002800009201930C9122003B005946FFF763
:105070009FFB040082E6C0462D4D0010D810002092
:1050800008E900104CE9001098E900104190000078
:10509000462800D1DBE00492072142460C9B039294
:1050A000073352468B43190002920CC92800009224
:1050B00001930C9122003B005946FFF725F90400AB
:1050C0005CE6631C984622003B0059462520A84711
:1050D000444653E60C9B04330D93631C9946920798
:1050E00000D422E10C9B2200187859463B00A847C7
:1050F00043464444012B00D885E23300B8462E00D5
:105100005F4625004C46994622004346013439004B
:105110002020B047AC42F7D12C00BB4635004746B3
:105120004E460D9B0C9329E6DB4B307898460023C6
:105130009946002800D012E60024AEE66F2800D180
:1051400088E000D80BE31023782800D1CFE09A4301
:105150000A239C4600230F930A330D9380E05646A2
:10516000B1008919490001330E181878303E01004A
:1051700030390929F4D9B2461E000133994628E690
:105180000C9B023602CB8A46C9435046C9170840D9
:1051900082460C933078731C99461AE6102310004F
:1051A000984311331843814680201300C000034008
:1051B000024200D1A9E64B460693082305935346C5
:1051C000049310230393002302930F9B2200019367
:1051D0001CAB009359463B002800FEF79FFF434657
:1051E00004000C93CAE501235B42C3E60F9B5345C1
:1051F00001D953460F930223180010400D9013421B
:1052000000D1B7E10D93D1460B1B9A463300A14460
:105210002E0022004D460C98B9465F469B4608E09A
:105220004B463900541CB0475346185D002877D0D0
:1052300022009542F4D15B46BB464F46A946350055
:105240004C461E00C9E680231B011A43FDE62023BD
:105250001A4320E708239C4600230F9308330D933D
:1052600080231100DB0019401A4200D116E10D2302
:105270009A431000802302009B001A4014921842A7
:1052800000D0C2E1802302005B001A4091460C9AD4
:1052900004320F92184200D0B7E2430600D59FE1D6
:1052A000030600D419E30C9B1B880993002B00D044
:1052B000FCE110339843002900D1F7E1002399461F
:1052C00043460593534604930D9B06900393002396
:1052D000D2E0582808D0622867D102239C460023D8
:1052E0000F9302330D93BBE720231A43103B9C46D8
:1052F00000230F9310330D93B2E780231B011A4351
:1053000020231A43A1E6C0239B001A43F31C9946AD
:10531000B07882E5C0231A43F31C9946B0787CE547
:1053200035005E46BB464F4657E64346012B00D844
:1053300063E1631E43449A463300B9462E005F463C
:1053400055469B46A24622004B4601343900202098
:10535000B047AC42F7D135005E46BB464F46A1464A
:1053600054460C9B4A46187859463B004444A8478B
:10537000D7E6A1460F9B984500D832E64444E41A8C
:105380003300B8462E005F4625004C469946220061
:105390004346013439002020B047AC42F7D12C00FD
:1053A000BB46350047464E461BE680231000DB0017
:1053B00018401A4200D10FE1112118008A430D92C2
:1053C0000D9A802311009B0019408C461A4269D126
:1053D000802311005B00194089460C9904310F911C
:1053E0001A4200D0CAE113005B0600D5F0E01300BA
:1053F0001B0600D459E20C9B00229B5ED9175A1859
:105400004A4092B2D90F0C91002B00D1F9E1100063
:1054100014AA944642461F23149252466344A84657
:1054200016944D460400B946B2461F00159201E09D
:10543000202D0FD020000A21FDF70EFF01357E1927
:105440003031317020000A21FDF706FF26000400EC
:10545000092EEDD8149B4F46A94645469846159B04
:1054600056469A46169C0D9B069343460593534613
:1054700004930A2303930C9B02934B4601931CABAA
:105480002200009359463B002800FEF747FE0F9B81
:1054900004000C9372E4C0466D4000100C239A4344
:1054A0001000E7E607220C9B073393430132944632
:1054B0009C4462460C920CCBD90F0F9111001943FA
:1054C00000D191E0D9171391129151401091139985
:1054D0005940119110981199129A139B801A994171
:1054E0001090119114AA00239446424699461492B2
:1054F00052461F336344A846B24616944E46109C4B
:10550000119DB94615921F0001E0202E10D02000F9
:1055100029000A220023FDF7DDFE013630322B0080
:10552000BA550D0022000400002BEED1092AECD858
:10553000149B1094119545469846159B4F46B146CD
:1055400056469A46169C0D9B069343460593534632
:1055500004930A2303930F9B02934B4601931CABC6
:105560002200009359463B002800FEF7D7FD0400B7
:10557000FFF704FC0F9B984500D8C1E18023DB00B6
:105580000D9343460F9A1B199B1A994633002E0020
:105590004D46B9465F469B460C9122004B4601346E
:1055A00039002020B047AC42F7D143460C99013373
:1055B0000F930B7835000C935E46BB464F46002B8D
:1055C00000D10EE50D9B002B00D1F6E4002319E677
:1055D0000C9B1B781A0015E710239A430D92EFE6F7
:1055E0000C9B1B78099361E6002399460028AAD1F9
:1055F000002200231092119374E70C9B220018786C
:1056000059463B00A8474C468BE50C9AFA3BFF3BBA
:1056100007329A430133994691444B460C931368E1
:10562000526815921A4306D1103290430022099213
:10563000002900D081E06122810600D54122D2B24A
:105640000A9214AA91460A9A00210A3A14924246F2
:105650001792524618925A460991B3461F311E00BE
:105660000F9B4944BA4619941A95002467469846F8
:105670008946159D16901B920AE03032D2B24B46F5
:1056800001341A55A8454AD0202C4AD006000D00F6
:105690003A00002330002900FDF71CFED2B2092A8F
:1056A000EBD9149B9C466244D2B2E8E761238206A0
:1056B00000D54123DBB20A3B0C93434614A91F22B9
:1056C0008C46159353466244A046B2464C46179703
:1056D000A9461700099D0D9E1490169308E03033DB
:1056E000DBB201343B55B5420ED3202C0CD0050063
:1056F00031002800FDF7B0FDCBB20929EFD90C9A93
:1057000094466344DBB2ECE7159B4D46A146444604
:105710009846169B564614989A46179FD0E5B7426E
:10572000B2D9179B57469846189B5E469A461B9BD4
:1057300009949B461698199C1A9D43460593534617
:1057400004930D9B0690039300230293099B05E7A6
:105750000F9B984500D914E701330F932DE41023D4
:10576000110099430D91692800D0BAE08023100000
:10577000DB0018401A4200D122E61DE60C9B1B6894
:10578000DA0F1100002B00D18CE0DA179818504086
:1057900014AA914642461F23149252464B44A046F7
:1057A000A946169704006546B2461F000C91159253
:1057B00001E0202D0FD020000A21FDF74DFD01351D
:1057C0007E193031317020000A21FDF745FD260099
:1057D0000400092EEDD8149B444698460C9BAC4619
:1057E0001900159B56464D469A46169F0D9B0291F1
:1057F000069343460593534604930A230393634653
:105800003CE6002800D02EE602E60C9B1B68994679
:10581000002B03D110339843002938D1612382062D
:1058200000D54123DBB20A3B0C9343461693534603
:1058300014A91F228C4617932B006244A0464D46A4
:10584000B246189799461700149C0D9E159008E0D3
:105850003033DBB201343B55B5420ED3202C0CD093
:10586000050031002800FDF7F7FCCBB20929EFD97C
:105870000C9A94466344DBB2ECE7169B14944446BE
:105880009846179B56464D469A461598189F43468C
:105890000593534604930D9B0690039300230293B4
:1058A000149BEBE50028A1D172E70C9B1B68D9176C
:1058B0005A184A40A6E580231000DB0018409C4699
:1058C0000F901A420FD00220030013400F93104292
:1058D00019D00023A1460F934CE50C9B1B6809933C
:1058E000E4E40A0034E40223180010400D9013424F
:1058F00000D03EE54346002B00D042E6FFF771FBA7
:1059000001330F937FE463460D93F3E710B50C006A
:1059100084B00394012402A9029000930348130069
:105920006242FFF703FA04B010BDC046F94200100E
:105930000FB430B50C4985B008AA08CA0D680392A7
:10594000002D0CD000920122084C5242200002A9E6
:10595000A847012005B030BC08BC04B018471800A7
:1059600000F0E8F90020F5E7D8100020E942001027
:1059700010B5094A0300146884B0002C08D0012235
:1059800000910648524203A9A047012004B010BD6F
:1059900000F0D0F90020F9E7D8100020E94200100B
:1059A00000BEFDE7094A03001068002805D0084939
:1059B000C3188B4207D81360704706480449C318C0
:1059C00010608B42F7D901204042F5E7C01000205B
:1059D00000000420A411002010B5FFF7E1FFC0462D
:1059E00030B50D0083B01900002A0BD0074B084CCE
:1059F0000192009302002B002000FFF799FF012085
:105A0000FFF7CEFF034B1A00F1E7C04660E100103C
:105A100070E100106CE1001070B5FDF71DFB074D43
:105A2000074EB54209D20024013E761BB60808CDC8
:105A3000984723000134B342F9D170BD8CDE0010C9
:105A400090DE0010030010B5080011001B68984795
:105A500010BDC046F0B5C64600B5437D07000C003A
:105A60001600002B46D0002A17DD0B780A2B24D015
:105A700000239846012E13D001252900635C0135CF
:105A80000A2B26D0B542F8D1464509DCA419013CC1
:105A900023780D3B5A4253413B7580BCB846F0BD5C
:105AA0004346E018A419F11A013C3B689847237853
:105AB0000D3B5A4253413B75EFE7037D002BD7D195
:105AC00002210F483B689847012EDFD001239846FA
:105AD000D2E7631E5B5C0D2BD4D0884504DA4346C5
